:040000000C948700D5
:040024000C9407072A
:04002C000C943A08EE
:14005400B301CB01E301FB01EF0107021302BF01D701790217
:140068007902790279027902790279027902A90159029D0184
:14007C004202A30179024302790279027902730276026902FF
:140090007902AF0179021F027902490297017902790222021D
:1400A4003202D502BD068706DE02B7068106CB02B1069306AC
:1400B800C102AB068D06650600000041434B4C454E5F45521E
:1400CC005243484B5F45525249444C455F4F4B4C494D5F4117
:1400E0004C494D5F424348415247554C4C494E4B007374610D
:1400F4007274656E64000000000000000000000000000000DB
:14010800000000000000CFE5D4E0CDBFDEBFC051D0400AEA3D
:14011C0008830024EEEAF0E011E0E63CF10711F00192FBCF0F
:140130000083E0ECF0E0A0E6B0E011E000E00BBFEE30F107D5
:1401440021F0C89531960D92F9CF0E94AA00FFCF239783E5CF
:140158008A83AA24BB244427552704EF11E00E94BD070E9406
:14016C00DB0400E01BE40E94F4070E94DD070E94F9060E945B
:140180000B050E94FA088EEF93E09093B7008093B6008BEFAA
:1401940091E09093B5008093B40084E690E09093BB0080937C
:1401A800BA0080E991E09093B9008093B800222433243092A9
:1401BC00C3002092C2003092BF002092BE0081E090E0909313
:1401D000C1008093C0009093BD008093BC003092C50020929F
:1401E400C4003092AF002092AE0088E593E09093B3008093A9
:1401F800B20082E89093B1008093B00008EB1BE00E94BD07EC
:14020C00662707C00E941A0904E110E00E94BD0763956431FD
:14022000B8F30E94D404AAC10E94C306002309F454C0A8955E
:140234000E94F9040E94CB06602F77276035E0E07E0709F4A0
:1402480043C080E590E0861797076CF06234E0E07E0721F146
:14025C006434E0E07E07A9F06634E0E07E0739F134C0653581
:14027000E0E07E0709F02FC08CEB90E0998388832AEB30E01A
:1402840008EB10E00E94F40224C086EB90E09983888324EBF0
:1402980030E002EB10E00E94F40219C080EB90E099838883F2
:1402AC002EEA30E00CEA10E00E947D030EC08AEA90E0998340
:1402C000888328EA30E006EA10E00E947D0303C001E00E94B5
:1402D400B6040E9406058E010E5F1F4F0E941105C02E00237C
:1402E80009F007C1A8950E94F90423E003E610E00E942908B6
:1402FC006A8177276133E0E07E070CF4F4C089E590E086175D
:1403100097070CF4EEC084E590E0FB01F197EE0FFF1FE80F1E
:14032400F91F25903490F10109942AEB30E005E50E94FB03F6
:14033800DEC024EB30E004E40E94FB03D8C028EA30E006E4C8
:14034C000E945A04D2C02EEA30E002E40E945A04CCC000274A
:140360000E94B604C8C08091BC009091BD0001969093BD0083
:140374008093BC000E944305BCC08091BE009091BF000196FA
:140388009093BF008093BE000E944305B0C08091C000909162
:14039C00C10001969093C1008093C0000E944305A4C08091DF
:1403B000C2009091C30001969093C3008093C2000E94430557
:1403C40098C08091B4009091B50005979093B5008093B400F7
:1403D8000E9443058CC08091B8009091B90005969093B900C1
:1403EC008093B8000E94430580C08091B6009091B7000597CD
:140400009093B7008093B6000E94430574C08091BA0090913B
:14041400BB0005969093BB008093BA000E94430568C08091B0
:14042800C4009091C50001969093C5008093C4000E944305D6
:14043C005CC00E94430559C001E00E9448070E94D5028E01B3
:140450000E5F1F4F0E941105C02E0023C1F70E94F20249C09D
:1404640000270E9448070E94C1028E010E5F1F4F0E941105E5
:14047800C02E0023C1F70E94F20239C0FFCF23E008E710E068
:14048C000E94290832C00E941A096801D092AF00C092AE0058
:1404A0002090AE003090AF003092B1002092B00022C00E9422
:1404B4001A096801D092AF00C092AE002090AE003090AF00CA
:1404C8003092B3002092B20012C00E941A096801D092AF0036
:1404DC00C092AE000E94430508C00E94380605C00E940C0601
:1404F00002C00E94F2020E9406050E94B706C02E0023A9F1E9
:140504000E94A506C02E002311F0AF9801C0AF9ABA014F5FCA
:140518005F4F80E69AEEA0E0B0E08B019C0122273327BA930A
:14052C00AA939A938A930E949809889400231007200730073D
:14054000C1F40E941A09680156012090B2003090B300021581
:14055400130510F496980BC02090B0003090B1002A143B0430
:1405680020F4969A02C0969AAF9AA895442755270E94F20246
:14057C0055CE23960895DB9ADA9A0091C4001091C5000E94AC
:14059000BD07DC9A0895DB98DA9A0091C4001091C5000E943C
:1405A400BD07DC9A0895DD980091C4001091C5000E94BD07D6
:1405B800DE980895DD9A0091C4001091C5000E94BD07DE980E
:1405CC00089500270E944807DA98DC98089501E00E94480711
:1405E000DE9A0895F4DFF9CF0E942C0A590178012497CC84A1
:1405F400DD844427552700270E94480720906000222029F424
:14060800F6010E94770A002311F4CAD16FC0F5010E94770AB9
:14061C00002331F025E00BE710E00E94290864C0F7010E940E
:14063000770ADB82CA82B982A882222700270E945B07F501BD
:140644000E94770AE02E002339F0BFDF25E00BE710E00E94FE
:14065800290847C005E010E00E94BD0735C0A8954F5F5F4F8D
:14066C000AE010E00E94BD074039E1E05E0710F040E951E041
:14068000F6010E94770AE02E002359F404E110E00E94BD0793
:14069400F6010E94770AE02E002309F418C0F5010E94770A19
:1406A800E02E002389F00AE010E00E94BD07F5010E94770A3B
:1406BC00E02E002339F085DF25E00BE710E00E9429080DC0E5
:1406D000CACF4039E1E05E0740F0DB82CA82B982A882222757
:1406E40001E00E945B0771DF08E512E00E94BD0724960C942E
:1406F800160A0E942C0A590178012497CC84DD8444275527D0
:14070C0001E00E9448070AE010E00E94BD0720906000222075
:1407200029F4F6010E94770A002311F43DD160C0F5010E94A0
:14073400770A002331F025E000E810E00E94290855C0F7012F
:140748000E94770ADB82CA82B982A88221E000270E945B0740
:14075C00F5010E94770AE02E002391F138DF25E000E810E0C9
:140770000E94290838C0A8954F5F5F4F0AE010E00E94BD07D1
:140784004039E1E05E0710F040E951E0F6010E94770AE02E40
:14079800002359F40AE010E00E94BD07F6010E94770AE02E75
:1407AC00002309F40EC0F5010E94770AE02E002339F00DDFEC
:1407C00025E000E810E00E9429080DC0D4CF4039E1E05E0766
:1407D40040F0DB82CA82B982A88221E001E00E945B07F9DE16
:1407E80008E512E00E94BD0724960C94160A0E94570A5901E1
:1407FC00402F259783E58C83CC24DD2400270E9448070AE054
:1408100010E00E94BD0720906000222011F0C4D046C0F5019B
:140824000E94770A002331F025E00BE710E00E9429083BC0A4
:14083800443411F4ACDE01C0A0DE8EEB90E09B838A83B98217
:14084C00A882222700270E945B07F5010E94770A002339F095
:14086000B6DE25E00BE710E00E9429081BC005E010E00E94E4
:14087400BD0715C08E010C5F1F4FD1D0C02E002309F40EC0F2
:14088800F5010E94770AC02E002339F09CDE25E00BE710E0A8
:14089C000E94290801C0EACF94DE08E512E00E94BD07259689
:1408B0000C945E0A0E94570A5901402F259783E58C83CC243D
:1408C400DD2401E00E94480720906000222029F4F5010E9446
:1408D800770A002311F064D042C0F5010E94770A002331F0D4
:1408EC0025E000E810E00E94290837C0463411F456DE01C0DD
:140900005DDE8EEB90E09B838A83B982A88221E000270E9465
:140914005B07F5010E94770AC02E0023E1F05BDE25E000E84C
:1409280010E00E94290816C08E010C5F1F4F75D0C02E002364
:14093C0009F40EC0F5010E94770AC02E002339F046DE25E060
:1409500000E810E00E94290801C0EACF3EDE08E512E00E94D1
:14096400BD0725960C945E0AAA92A02E80916000813029F4AF
:14097800D99822242092600004C0D99A81E0809360000ED0B9
:14098C00AA2031F001C0A8950E949F060023D9F704E610E05A
:1409A0000E94BD07A9900895979A02E310E00E94BD0797986C
:1409B4000895DC98DE9AD098D8988AB38E6F8ABBDC98DE9A63
:1409C800D998DA98222424BA8FEF85BBA79A8F9A8E9A969A94
:1409DC0097988A988B988C988D98939A929A949A959AAF9A4B
:1409F0000895AF9820906000222031F42224332430926200D7
:140A040020926100A8950895AF9A08EC10E00C94BD07A89523
:140A18008FE181BD8FE081BD08950E94350A5801219722249A
:140A2C002882A8958E010E94C908A8010030010711F401E006
:140A40001FC08881843039F027E006E610E00E94290802E045
:140A540015C0FA0121803080320C2280320C2380321439F03D
:140A680027E00DE610E00E94290803E005C0FA012180F50183
:140A7C002082002721960C943A0A0091C4001091C500012F17
:140A900011270E9421080091C4001091C5000E9421080AEAD5
:140AA4000E9421080091B6001091B700012F11270E942108A1
:140AB8000091B6001091B7000E9421080AEA0E942108009170
:140ACC00B4001091B500012F11270E9421080091B4001091F3
:140AE000B5000E9421080AEA0E9421080091BA001091BB001C
:140AF400012F11270E9421080091BA001091BB000E94210849
:140B08000AEA0E9421080091B8001091B900012F11270E946D
:140B1C0021080091B8001091B9000E9421080AEA0E9421086F
:140B30000091C2001091C300012F11270E9421080091C20074
:140B44001091C3000E9421080AEA0E9421080091BE001091BF
:140B5800BF00012F11270E9421080091BE001091BF000E9446
:140B6C0021080AEA0E9421080091C0001091C100012F112772
:140B80000E9421080091C0001091C1000E9421080AEA0E9482
:140B940021080091BC001091BD00012F11270E9421080091B5
:140BA800BC001091BD000E9421080AEA0E9421080091AE0056
:140BBC001091AF00012F11270E9421080091AE001091AF0013
:140BD0000E9421080AEA0E9421080091B0001091B100012FC4
:140BE40011270E9421080091B0001091B1000E9421080AEAA8
:140BF8000E9421080091B2001091B300012F11270E94210854
:140C0C000091B2001091B3000C9421080E94490A6627772754
:140C20008EEA90E05C0144270CC0E42FFF27EA0DFB1D20815B
:140C34001B016F5F7F4F81010E9467064395463090F384EB23
:140C480090E05C0144270CC0E42FFF27EA0DFB1D20811B018F
:140C5C006F5F7F4F81010E9467064395423190F30C94500A8F
:140C70000E94650A662777278EEA90E05C0144270CC01B019C
:140C84006F5F7F4F81010E947A06E42FFF27EA0DFB1D008351
:140C98004395463090F384EB90E05C0144270DC06B016F5FC9
:140CAC007F4F86010E947A06C02EE42FFF27EA0DFB1DC08245
:140CC0004395423188F30C946E0A01E008950E94300AA22E18
:140CD4006801E199FECFDFBACEBAADBAE29AF894E19A789445
:140CE80001E010E00E94BD070C940A0AE199FECF1FBB0EBB23
:140CFC00E09A0DB30895989B02C0002701C001E00895999B7E
:140D100002C0002701C001E008959C9B02C0002701C001E0E5
:140D240008959D9B02C0002701C001E008959A9B02C00027A0
:140D380001C001E008959B9B02C0002701C001E008959E9BD1
:140D4C0002C0002701C001E00895829B02C0002701C001E0C3
:140D60000895839B02C0002701C001E00895859B02C0002793
:140D740001C001E00895849B02C0002701C001E0089583B3AF
:140D88008F738F3311F4002701C001E0089503E523B3332710
:140D9C002F7330702F32E0E03E0709F18FE290E0821793078D
:140DB0002CF02F31E0E03E07D1F01AC02733E0E03E0789F03B
:140DC4002B33E0E03E0791F02D33E0E03E0739F02E33E0E088
:140DD8003E0709F009C002E407C006E405C000E503C005E512
:140DEC0001C004E40895222423BE82EB82BF89B7816089BF6F
:140E000088B7816088BF85E083BF789408952A923A928A9382
:140E14009A93AA93EA932FB62A9282EB82BF80916100909101
:140E2800620001969093620080936100803EEEE29E0770F031
:140E3C0020906000222021F4D99A81E0809360002224332457
:140E5000309262002092610029902FBEE991A99199918991B9
:140E64003990299018950E94350A402F413029F4A090B40089
:140E7800B090B50004C0A090B600B090B70085010E94E307BE
:140E8C000C943A0A0E94350A402F413029F4A090B800B09068
:140EA000B90004C0A090BA00B090BB0085010E94E3070C942A
:140EB4003A0A0E942A0A622F402F219783E58883A895613017
:140EC80069F46091B4007091B500A090B800B090B900C0902D
:140EDC00BC00D090BD000CC06091B6007091B700A090BA0014
:140EF000B090BB00C090C000D090C100413009F421C0A501CD
:140F04001BC08A010E94E30786010E94BD07EB85FC850E9467
:140F1800770A002361F48E010E941105002339F0ED85FE8544
:140F2C000E94770AE02E002309F41CC04F5F5F4F461757076D
:140F400010F318C0AB0110C08A010E94E30786010E94BD0742
:140F5400EB85FC850E94770A602F002309F006C041505040E3
:140F68004A155B0568F302C00E94F20221960C941F0A0E94E1
:140F7C003F0A66277727442755270CC06627772702C06F5F7F
:140F90007F4F6537E4E07E07D0F3A8954F5F5F4F401751078F
:140FA40088F30C94440A1801015010402220D9F73320C9F7F1
:140FB8000895BD9ABF9ABC9A81E58DB90895A895000F111FBD
:140FCC00000F111FC4981801232C33242FB8779BFECF0FB929
:140FE000779BFECFC49A08950E94490A580122242AB82BB8CA
:140FF40086E880BD15014424552440E251EA67E070E05A9267
:141008004A923A922A928A019B010E94960941E050E060E077
:14101C0070E018012901241A350A460A570A510129B8232C7D
:14103000332420BC88E98AB980E88FBF899A0C94500AA895B5
:141044005D9BFECF0CB95E9BFECF5E9A08950E942E0AC22EE9
:141058007801AA2407C0EA2DFF27EE0DFF1D0081ECDFA3949F
:14106C00AC14B8F30C940F0A2A923A928A939A93EA93FA9370
:141080002FB62A925798209090003324822D8F5F80939000F5
:1410940086EC90E0E22DFF27E80FF91F2CB02082A895579A76
:1410A80029902FBEF991E991999189913990299018952224D1
:1410BC002092900008950091900008950E94490AAA244FEF82
:1410D000A89566272FC0A89586EC90E0E62FFF27E80FF91FEA
:1410E400208030909100231411F5AA24A39402C0A394A8958F
:1410F8002A2C3324E62FFF27E20DF31D86EC90E0E80FF91F0C
:14110C00208081E990E0EA2DFF27E80FF91F3080231419F415
:141120008A2D853038F38A2D853018F0462F4B5F06C06395D3
:14113400802F8450681708F4CCCF042F0C94500A4A93442799
:1411480002C0A8954395242E3324E2E0F0E0E219F30986E91B
:14115C0090E0E80FF91F2080342E4424E02FFF273197E3199D
:14117000F40986EC90E0E80FF91F3080321411F4433018F304
:14118400433010F001E001C00027499108950E94650A58013A
:1411980094DF602F4FEFA8950C3018F40027112723C084E1D7
:1411AC00861708F419C0062FC7DF013009F014C0062F84DF4C
:1411C000C02E4C2D0F3F09F40DC077DF862F841B8350F50129
:1411D400808386EC90E0042F1127080F191F06C06ADF222413
:1411E800F5012082002711270C946E0AD098D89880E487B968
:1411FC0080E886B90895AA92BA92369A01C0A895349BFDCFAA
:14121000A4B0BB2425B1332700E011E00E94FA09A00EB11E74
:1412240005E010E00E94BD078501B990A99008950E942C0AFE
:141238004427CC24DD24AA24BB24DFDF78018091AD008A30EA
:14124C0078F4282E8F5F8093AD0089E990E0E22DFF27EE0F0A
:14126000FF1FE80FF91FF182E08231C044271FC0A89589E98E
:1412740090E0E42FFF27EE0FFF1FE80FF91F20803180C20C74
:14128800D31CE42FFF273196EE0FFF1FE80FF91F20803180E8
:14129C00E42FFF27EE0FFF1FE80FF91F318220824395493035
:1412B000F8F2A7DF7801F092AC00E092AB00C00ED11E2AE02F
:1412C40030E086010E94760958010C94160A2017310718F4CA
:1412D800021B130B04C01901201A310A81010895689401C098
:1412EC00E894EA92FA928A93EE24FF2480E1000F111FEE1C6E
:14130000FF1CE216F30618F0E21AF30A03958A95A1F716F473
:141314000E2D1F2D8991F990E9900895E89401C0689430D04C
:14132800CC2409C0E89401C068942AD037FD0E94800AB7FDB1
:14133C0052D0772488249924AA24BB2442D0C1F045D0B1F051
:14135000E8E2000F111F221F331F771C881C991CAA1CBB1C64
:1413640088169906AA06BB0628F0881A990AAA0ABB0A039559
:14137800EA9559F726F4082D192D2A2D3B2D13C07A928A9243
:14138C009A92AA92BA92CA92EA938A939A93AA93BA938B85DC
:1413A0009C85AD85BE85C32E0EF0CB260895C7FC0E94800A37
:1413B400B991A99199918991E991C990B990A99099908990C6
:1413C800799024960895E02FE12BE22BE32B0895E82FE92BB3
:1413DC00EA2BEB2B089580959095A095B0958F5F9F4FAF4FA7
:1413F000BF4F08950A921A928A939A93029FC001129F900DFC
:14140400039F900D8C0199918991199009900895A990B99063
:14141800C990D9900895A990B990C990D990E990F99008957E
:14142C00A990B990C990D990E990F990499159910895A990CC
:14144000B990C990D990E990F9904991599169917991089526
:141454007A936A935A934A93FA92EA92DA92CA92BA92AA9258
:1414680008955A934A93BA92AA920895A990B990499159919E
:14147C0008957A936A935A934A930895499159916991799186
:1414900008957A936A935A934A93BA92AA920895A990B99030
:1414A400499159916991799108955A934A93DA92CA92BA92F1
:1414B800AA920895A990B990C990D9904991599108957A9395
:1414CC006A935A934A93DA92CA92BA92AA920895A990B990D6
:1414E000C990D990499159916991799108950A92C8950A923C
:1414F4003196C895F02DE9910990099400951095209530953F
:0A1508000F5F1F4F2F4F3F4F089554
:00000001FF
