:040000000C948700D5
:040024000C9422070F
:04002C000C945508D3
:14005400B801D001E8010002F4010C021802C401DC017E02E4
:140068007E027E027E027E027E027E027E02AE015E02A20152
:14007C004702A8017E0248027E027E027E0278027B026E02CD
:140090007E02B4017E0224027E024E029C017E027E022702EB
:1400A4003702F002D806A206F902D2069C06E602CC06AE06B4
:1400B800DC02C606A806800600000041434B4C454E5F4552B2
:1400CC005243484B5F45525249444C455F4F4B4C494D5F4117
:1400E0004C494D5F424348415247554C4C494E4B007374610D
:1400F4007274656E64000000000000000000000000000000DB
:14010800000000000000CFE5D4E0CDBFDEBFC051D0400AEA3D
:14011C0008830024EEEAF0E011E0E63CF10711F00192FBCF0F
:140130000083E0ECF0E0A0E6B0E011E000E00BBFEE30F107D5
:1401440021F0C89531960D92F9CF0E94AA00FFCF239783E5CF
:140158008A83AA24BB24662777274427552704EF11E00E9441
:14016C00D8070E94F60400E01BE40E940F080E94F8070E9429
:1401800014070E9426050E9415098EEF93E09093B7008093E6
:14019400B6008BEF91E09093B5008093B40084E690E090931A
:1401A800BB008093BA0080E991E09093B9008093B8002224F4
:1401BC0033243092C3002092C2003092BF002092BE0081E08D
:1401D00090E09093C1008093C0009093BD008093BC00309283
:1401E400C5002092C4003092AF002092AE0088E593E09093F8
:1401F800B3008093B20082E89093B1008093B00008EB1BE08C
:14020C000E94D807CC2407C00E94350904E110E00E94D80770
:14022000C3948C2D8431B0F30E94EF04C2C10E94DE060023A1
:1402340009F456C0A8950E9414050E94E606C02EDD24C60167
:140248008035E0E09E0709F444C080E58C159D0574F0C601B4
:14025C008234E0E09E0729F18434E0E09E07B1F08634E0E021
:140270009E0741F135C0C6018535E0E09E0709F02FC08CEB69
:1402840090E0998388832AEB30E008EB10E00E940F0324C02F
:1402980086EB90E09983888324EB30E002EB10E00E940F039A
:1402AC0019C080EB90E0998388832EEA30E00CEA10E00E94B3
:1402C00098030EC08AEA90E09983888328EA30E006EA10E0B4
:1402D4000E94980303C001E00E94D1040E9421058E010E5FFA
:1402E8001F4F0E942C05C02E002309F007C1A8950E941405F7
:1402FC0023E003E610E00E944408CA80DD24C6018133E0E09E
:140310009E070CF4F3C089E58C159D050CF4EEC084E590E049
:14032400F601F197EE0FFF1FE80FF91F25903490F101099414
:140338002AEB30E005E50E941604DEC024EB30E004E40E949F
:14034C001604D8C028EA30E006E40E947504D2C02EEA30E00A
:1403600002E40E947504CCC000270E94D104C8C08091BC0009
:140374009091BD0001969093BD008093BC000E945E05BCC0D0
:140388008091BE009091BF0001969093BF008093BE000E94C6
:14039C005E05B0C08091C0009091C10001969093C100809339
:1403B000C0000E945E05A4C08091C2009091C300019690939F
:1403C400C3008093C2000E945E0598C08091B4009091B50095
:1403D80005979093B5008093B4000E945E058CC08091B800BC
:1403EC009091B90005969093B9008093B8000E945E0580C09C
:140400008091B6009091B70005979093B7008093B6000E9468
:140414005E0574C08091BA009091BB0005969093BB0080930A
:14042800BA000E945E0568C08091C4009091C5000196909364
:14043C00C5008093C4000E945E055CC00E945E0559C001E0F0
:140450000E9463070E94F0028E010E5F1F4F0E942C05C02ECD
:140464000023C1F70E940D0349C000270E9463070E94DC023B
:140478008E010E5F1F4F0E942C05C02E0023C1F70E940D03B8
:14048C0039C0FFCF23E008E710E00E94440832C00E943509F3
:1404A0006801D092AF00C092AE002090AE003090AF0030923F
:1404B400B1002092B00022C00E9435096801D092AF00C09293
:1404C800AE002090AE003090AF003092B3002092B20012C0FA
:1404DC000E9435096801D092AF00C092AE000E945E0508C0E5
:1404F0000E94530605C00E94270602C00E940D030E9421052D
:140504000E94D206C02E002309F44AC00E94C006C02E0023D8
:1405180011F0AF9801C0AF9A6B016F5F7F4F80E69AEEA0E007
:14052C00B0E08601970122273327BA93AA939A938A930E94F3
:14054000B3098894002310072007300769F50E943509680190
:1405540056012090B2003090B3000215130510F4969820C026
:140568002090B0003090B1002A143B0440F44F5F5F4F44312C
:14057C00E0E05E0798F0969A11C08091B0009091B10005978E
:14059000A816B90648F44130E0E05E0728F04150504002C00D
:1405A400969AAF9AA895662777270E940D033DCE239608954F
:1405B800DB9ADA9A0091C4001091C5000E94D807DC9A0895F7
:1405CC00DB98DA9A0091C4001091C5000E94D807DC9A0895E5
:1405E000DD980091C4001091C5000E94D807DE980895DD9ACC
:1405F4000091C4001091C5000E94D807DE98089500270E94DB
:140608006307DA98DC98089501E00E946307DE9A0895F4DF1C
:14061C00F9CF0E94470A590178012497CC84DD8444275527E9
:1406300000270E94630720906000222029F4F6010E94920ADF
:14064400002311F4CAD16FC0F5010E94920A002331F025E033
:140658000BE710E00E94440864C0F7010E94920ADB82CA82BB
:14066C00B982A882222700270E947607F5010E94920AE02E44
:14068000002339F0BFDF25E00BE710E00E94440847C005E0BB
:1406940010E00E94D80735C0A8954F5F5F4F0AE010E00E94D7
:1406A800D8074039E1E05E0710F040E951E0F6010E94920A31
:1406BC00E02E002359F404E110E00E94D807F6010E94920A21
:1406D000E02E002309F418C0F5010E94920AE02E002389F032
:1406E4000AE010E00E94D807F5010E94920AE02E002339F019
:1406F80085DF25E00BE710E00E9444080DC0CACF4039E1E015
:14070C005E0740F0DB82CA82B982A882222701E00E947607ED
:1407200071DF08E512E00E94D80724960C94310A0E94470A8D
:14073400590178012497CC84DD844427552701E00E9463079E
:140748000AE010E00E94D80720906000222029F4F6010E943A
:14075C00920A002311F43DD160C0F5010E94920A002331F01F
:1407700025E000E810E00E94440855C0F7010E94920ADB8202
:14078400CA82B982A88221E000270E947607F5010E94920A35
:14079800E02E002391F138DF25E000E810E00E94440838C0C0
:1407AC00A8954F5F5F4F0AE010E00E94D8074039E1E05E07A6
:1407C00010F040E951E0F6010E94920AE02E002359F40AE02E
:1407D40010E00E94D807F6010E94920AE02E002309F40EC06F
:1407E800F5010E94920AE02E002339F00DDF25E000E810E0A6
:1407FC000E9444080DC0D4CF4039E1E05E0740F0DB82CA8213
:14081000B982A88221E001E00E947607F9DE08E512E00E9416
:14082400D80724960C94310A0E94720A5901402F259783E541
:140838008C83CC24DD2400270E9463070AE010E00E94D8071E
:14084C0020906000222011F0C4D046C0F5010E94920A002354
:1408600031F025E00BE710E00E9444083BC0443411F4ACDE8C
:1408740001C0A0DE8EEB90E09B838A83B982A8822227002748
:140888000E947607F5010E94920A002339F0B6DE25E00BE732
:14089C0010E00E9444081BC005E010E00E94D80715C08E01D5
:1408B0000C5F1F4FD1D0C02E002309F40EC0F5010E94920AAA
:1408C400C02E002339F09CDE25E00BE710E00E94440801C0D6
:1408D800EACF94DE08E512E00E94D80725960C94790A0E9401
:1408EC00720A5901402F259783E58C83CC24DD2401E00E940C
:14090000630720906000222029F4F5010E94920A002311F0B2
:1409140064D042C0F5010E94920A002331F025E000E810E044
:140928000E94440837C0463411F456DE01C05DDE8EEB90E03E
:14093C009B838A83B982A88221E000270E947607F5010E9438
:14095000920AC02E0023E1F05BDE25E000E810E00E94440811
:1409640016C08E010C5F1F4F75D0C02E002309F40EC0F5012A
:140978000E94920AC02E002339F046DE25E000E810E00E9450
:14098C00440801C0EACF3EDE08E512E00E94D80725960C94BA
:1409A000790AAA92A02E80916000813029F4D998222420920E
:1409B400600004C0D99A81E0809360000ED0AA2031F001C03A
:1409C800A8950E94BA060023D9F704E610E00E94D807A990F5
:1409DC000895979A02E310E00E94D80797980895DC98DE9A2B
:1409F000D098D8988AB38E6F8ABBDC98DE9AD998DA98222487
:140A040024BA8FEF85BBA79A8F9A8E9A969A97988A988B980C
:140A18008C988D98939A929A949A959AAF9A0895AF982090EE
:140A2C006000222031F4222433243092620020926100A895DE
:140A40000895AF9A08EC10E00C94D807A8958FE181BD8FE0FF
:140A540081BD08950E94500A5801219722242882A8958E01EA
:140A68000E94E408A8010030010711F401E01FC08881843089
:140A7C0039F027E006E610E00E94440802E015C0FA01218019
:140A90003080320C2280320C2380321439F027E00DE610E088
:140AA4000E94440803E005C0FA012180F50120820027219696
:140AB8000C94550A0091C4001091C500012F11270E943C0822
:140ACC000091C4001091C5000E943C080AEA0E943C0800910A
:140AE000B6001091B700012F11270E943C080091B6001091BE
:140AF400B7000E943C080AEA0E943C080091B4001091B500DC
:140B0800012F11270E943C080091B4001091B5000E943C080A
:140B1C000AEA0E943C080091BA001091BB00012F11270E943A
:140B30003C080091BA001091BB000E943C080AEA0E943C0806
:140B44000091B8001091B900012F11270E943C080091B80063
:140B58001091B9000E943C080AEA0E943C080091C20010917B
:140B6C00C300012F11270E943C080091C2001091C3000E940B
:140B80003C080AEA0E943C080091BE001091BF00012F11272C
:140B94000E943C080091BE001091BF000E943C080AEA0E943C
:140BA8003C080091C0001091C100012F11270E943C08009163
:140BBC00C0001091C1000E943C080AEA0E943C080091BC00F6
:140BD0001091BD00012F11270E943C080091BC001091BD00BA
:140BE4000E943C080AEA0E943C080091AE001091AF00012F7E
:140BF80011270E943C080091AE001091AF000E943C080AEA62
:140C0C000E943C080091B0001091B100012F11270E943C080D
:140C20000091B0001091B1000E943C080AEA0E943C080091DC
:140C3400B2001091B300012F11270E943C080091B200109174
:140C4800B3000C943C080E94640A662777278EEA90E05C0181
:140C5C0044270CC0E42FFF27EA0DFB1D20811B016F5F7F4FAC
:140C700081010E9482064395463090F384EB90E05C0144274C
:140C84000CC0E42FFF27EA0DFB1D20811B016F5F7F4F81016D
:140C98000E9482064395423190F30C946B0A0E94800A662782
:140CAC0077278EEA90E05C0144270CC01B016F5F7F4F8101E0
:140CC0000E949506E42FFF27EA0DFB1D00834395463090F347
:140CD40084EB90E05C0144270DC06B016F5F7F4F86010E9467
:140CE8009506C02EE42FFF27EA0DFB1DC0824395423188F31F
:140CFC000C94890A01E008950E944B0AA22E6801E199FECFBC
:140D1000DFBACEBAADBAE29AF894E19A789401E010E00E9445
:140D2400D8070C94250AE199FECF1FBB0EBBE09A0DB308954C
:140D3800989B02C0002701C001E00895999B02C0002701C06E
:140D4C0001E008959C9B02C0002701C001E008959D9B02C0BC
:140D6000002701C001E008959A9B02C0002701C001E00895BC
:140D74009B9B02C0002701C001E008959E9B02C0002701C02A
:140D880001E00895829B02C0002701C001E00895839B02C0B4
:140D9C00002701C001E00895859B02C0002701C001E0089595
:140DB000849B02C0002701C001E0089583B38F738F3311F4E9
:140DC400002701C001E0089503E523B333272F7330702F32FA
:140DD800E0E03E0709F18FE290E0821793072CF02F31E0E0B8
:140DEC003E07D1F01AC02733E0E03E0789F02B33E0E03E07D8
:140E000091F02D33E0E03E0739F02E33E0E03E0709F009C0A7
:140E140002E407C006E405C000E503C005E501C004E4089596
:140E2800222423BE82EB82BF89B7816089BF88B7816088BF11
:140E3C0085E083BF789408952A923A928A939A93AA93EA93C6
:140E50002FB62A9282EB82BF80916100909162000196909390
:140E6400620080936100803EEEE29E0770F0209060002220BF
:140E780021F4D99A81E0809360002224332430926200209297
:140E8C00610029902FBEE991A9919991899139902990189524
:140EA0000E94500A402F413029F4A090B400B090B50004C0A8
:140EB400A090B600B090B70085010E94FE070C94550A0E947F
:140EC800500A402F413029F4A090B800B090B90004C0A090EA
:140EDC00BA00B090BB0085010E94FE070C94550A0E94450A30
:140EF000622F402F219783E58883A895613069F46091B400F3
:140F04007091B500A090B800B090B900C090BC00D090BD0019
:140F18000CC06091B6007091B700A090BA00B090BB00C09065
:140F2C00C000D090C100413009F421C0A5011BC08A010E94D3
:140F4000FE0786010E94D807EB85FC850E94920A002361F4E9
:140F54008E010E942C05002339F0ED85FE850E94920AE02E9A
:140F6800002309F41CC04F5F5F4F4617570710F318C0AB01DB
:140F7C0010C08A010E94FE0786010E94D807EB85FC850E94C4
:140F9000920A602F002309F006C0415050404A155B0568F305
:140FA40002C00E940D0321960C943A0A0E945A0A66277727F9
:140FB800442755270CC06627772702C06F5F7F4F6537E4E089
:140FCC007E07D0F3A8954F5F5F4F4017510788F30C945F0AFD
:140FE0001801015010402220D9F73320C9F70895BD9ABF9AD1
:140FF400BC9A81E58DB90895A895000F111F000F111FC49833
:141008001801232C33242FB8779BFECF0FB9779BFECFC49A4A
:14101C0008950E94640A580122242AB82BB886E880BD1501EE
:141030004424552440E251EA67E070E05A924A923A922A9287
:141044008A019B010E94B10941E050E060E070E018012901F1
:14105800241A350A460A570A510129B8232C332420BC88E930
:14106C008AB980E88FBF899A0C946B0AA8955D9BFECF0CB978
:141080005E9BFECF5E9A08950E94490AC22E7801AA2407C00E
:14109400EA2DFF27EE0DFF1D0081ECDFA394AC14B8F30C9466
:1410A8002A0A2A923A928A939A93EA93FA932FB62A92579894
:1410BC00209090003324822D8F5F8093900086EC90E0E22D58
:1410D000FF27E80FF91F2CB02082A895579A29902FBEF991FB
:1410E400E991999189913990299018952224209290000895E6
:1410F8000091900008950E94640AAA244FEFA89566272FC051
:14110C00A89586EC90E0E62FFF27E80FF91F20803090910075
:14112000231411F5AA24A39402C0A394A8952A2C3324E62F81
:14113400FF27E20DF31D86EC90E0E80FF91F208081E990E017
:14114800EA2DFF27E80FF91F3080231419F48A2D853038F3BC
:14115C008A2D853018F0462F4B5F06C06395802F845068172C
:1411700008F4CCCF042F0C946B0A4A93442702C0A89543956D
:14118400242E3324E2E0F0E0E219F30986E990E0E80FF91F37
:141198002080342E4424E02FFF273197E319F40986EC90E001
:1411AC00E80FF91F3080321411F4433018F3433010F001E053
:1411C00001C00027499108950E94800A580194DF602F4FEFF7
:1411D400A8950C3018F40027112723C084E1861708F419C069
:1411E800062FC7DF013009F014C0062F84DFC02E4C2D0F3FCD
:1411FC0009F40DC077DF862F841B8350F501808386EC90E0BD
:14121000042F1127080F191F06C06ADF2224F50120820027FC
:1412240011270C94890AD098D89880E487B980E886B908958B
:14123800AA92BA92369A01C0A895349BFDCFA4B0BB2425B1A8
:14124C00332700E011E00E94150AA00EB11E05E010E00E94AE
:14126000D8078501B990A99008950E94470A4427CC24DD24A7
:14127400AA24BB24DFDF78018091AD008A3078F4282E8F5F5A
:141288008093AD0089E990E0E22DFF27EE0FFF1FE80FF91F51
:14129C00F182E08231C044271FC0A89589E990E0E42FFF27D6
:1412B000EE0FFF1FE80FF91F20803180C20CD31CE42FFF27B9
:1412C4003196EE0FFF1FE80FF91F20803180E42FFF27EE0F9E
:1412D800FF1FE80FF91F3182208243954930F8F2A7DF780146
:1412EC00F092AC00E092AB00C00ED11E2AE030E086010E94A3
:14130000910958010C94310A2017310718F4021B130B04C091
:141314001901201A310A81010895689401C0E894EA92FA92D6
:141328008A93EE24FF2480E1000F111FEE1CFF1CE216F306A9
:14133C0018F0E21AF30A03958A95A1F716F40E2D1F2D8991A2
:14135000F990E9900895E89401C0689430D0CC2409C0E8947C
:1413640001C068942AD037FD0E949B0AB7FD52D07724882426
:141378009924AA24BB2442D0C1F045D0B1F0E8E2000F111F75
:14138C00221F331F771C881C991CAA1CBB1C88169906AA0644
:1413A000BB0628F0881A990AAA0ABB0A0395EA9559F726F421
:1413B400082D192D2A2D3B2D13C07A928A929A92AA92BA923C
:1413C800CA92EA938A939A93AA93BA938B859C85AD85BE85BE
:1413DC00C32E0EF0CB260895C7FC0E949B0AB991A9919991C8
:1413F0008991E991C990B990A99099908990799024960895D8
:14140400E02FE12BE22BE32B0895E82FE92BEA2BEB2B08950E
:1414180080959095A095B0958F5F9F4FAF4FBF4F08950A92EB
:14142C001A928A939A93029FC001129F900D039F900D8C013A
:1414400099918991199009900895A990B990C990D990089594
:14145400A990B990C990D990E990F9900895A990B990C990C6
:14146800D990E990F990499159910895A990B990C990D99060
:14147C00E990F990499159916991799108957A936A935A93FE
:141490004A93FA92EA92DA92CA92BA92AA9208955A934A93AC
:1414A400BA92AA920895A990B9904991599108957A936A9322
:1414B8005A934A930895499159916991799108957A936A934A
:1414CC005A934A93BA92AA920895A990B990499159916991DD
:1414E000799108955A934A93DA92CA92BA92AA920895A99061
:1414F400B990C990D9904991599108957A936A935A934A93A4
:14150800DA92CA92BA92AA920895A990B990C990D9904991C4
:14151C0059916991799108950A92C8950A923196C895F02D5A
:14153000E9910990099400951095209530950F5F1F4F2F4FE9
:041544003F4F089578
:00000001FF
