:040000000C948700D5
:040024000C9424070D
:04002C000C945708D1
:14005400B801D001E8010002F4010C021802C401DC017E02E4
:140068007E027E027E027E027E027E027E02AE015E02A20152
:14007C004702A8017E0248027E027E027E0278027B026E02CD
:140090007E02B4017E0224027E024E029C017E027E022702EB
:1400A4003702F202DA06A406FB02D4069E06E802CE06B006A2
:1400B800DE02C806AA06820600000041434B4C454E5F4552AA
:1400CC005243484B5F45525249444C455F4F4B4C494D5F4117
:1400E0004C494D5F424348415247554C4C494E4B007374610D
:1400F4007274656E64000000000000000000000000000000DB
:14010800000000000000CFE5D4E0CDBFDEBFC051D0400AEA3D
:14011C0008830024EEEAF0E011E0E63CF10711F00192FBCF0F
:140130000083E0ECF0E0A0E6B0E011E000E00BBFEE30F107D5
:1401440021F0C89531960D92F9CF0E94AA00FFCF239783E5CF
:140158008A83AA24BB24662777274427552704EF11E00E9441
:14016C00DA070E94F80400E01BE40E9411080E94FA070E9421
:1401800016070E9428050E9417098EEF93E09093B7008093E0
:14019400B6008BEF91E09093B5008093B40084E690E090931A
:1401A800BB008093BA0080E991E09093B9008093B8002224F4
:1401BC0033243092C3002092C2003092BF002092BE0081E08D
:1401D00090E09093C1008093C0009093BD008093BC00309283
:1401E400C5002092C4003092AF002092AE0088E593E09093F8
:1401F800B3008093B20082E89093B1008093B00008EB1BE08C
:14020C000E94DA07CC2407C00E94370904E110E00E94DA076A
:14022000C3948C2D8431B0F30E94F104C4C10E94E00600239B
:1402340009F456C0A8950E9416050E94E806C02EDD24C60163
:140248008035E0E09E0709F444C080E58C159D0574F0C601B4
:14025C008234E0E09E0729F18434E0E09E07B1F08634E0E021
:140270009E0741F135C0C6018535E0E09E0709F02FC08CEB69
:1402840090E0998388832AEB30E008EB10E00E94110324C02D
:1402980086EB90E09983888324EB30E002EB10E00E94110398
:1402AC0019C080EB90E0998388832EEA30E00CEA10E00E94B3
:1402C0009A030EC08AEA90E09983888328EA30E006EA10E0B2
:1402D4000E949A0303C001E00E94D3040E9423058E010E5FF4
:1402E8001F4F0E942E05C02E002309F007C1A8950E941605F3
:1402FC0023E003E610E00E944608CA80DD24C6018133E0E09C
:140310009E070CF4F3C089E58C159D050CF4EEC084E590E049
:14032400F601F197EE0FFF1FE80FF91F25903490F101099414
:140338002AEB30E005E50E941804DEC024EB30E004E40E949D
:14034C001804D8C028EA30E006E40E947704D2C02EEA30E006
:1403600002E40E947704CCC000270E94D304C8C08091BC0005
:140374009091BD0001969093BD008093BC000E946005BCC0CE
:140388008091BE009091BF0001969093BF008093BE000E94C6
:14039C006005B0C08091C0009091C10001969093C100809337
:1403B000C0000E946005A4C08091C2009091C300019690939D
:1403C400C3008093C2000E94600598C08091B4009091B50093
:1403D80005979093B5008093B4000E9460058CC08091B800BA
:1403EC009091B90005969093B9008093B8000E94600580C09A
:140400008091B6009091B70005979093B7008093B6000E9468
:14041400600574C08091BA009091BB0005969093BB00809308
:14042800BA000E94600568C08091C4009091C5000196909362
:14043C00C5008093C4000E9460055CC00E94600559C001E0EC
:140450000E9465070E94F2028E010E5F1F4F0E942E05C02EC7
:140464000023C1F70E940F0349C000270E9465070E94DE0235
:140478008E010E5F1F4F0E942E05C02E0023C1F70E940F03B4
:14048C0039C0FFCF23E008E710E00E94460832C00E943709EF
:1404A0006801D092AF00C092AE002090AE003090AF0030923F
:1404B400B1002092B00022C00E9437096801D092AF00C09291
:1404C800AE002090AE003090AF003092B3002092B20012C0FA
:1404DC000E9437096801D092AF00C092AE000E94600508C0E1
:1404F0000E94550605C00E94290602C00E940F030E94230525
:140504000E94D406C02E002309F44CC00E94C206C02E0023D2
:1405180011F0AF9801C0AF9A6B016F5F7F4F80E69AEEA0E007
:14052C00B0E08601970122273327BA93AA939A938A930E94F3
:14054000B5098894002310072007300779F50E94370968017C
:1405540056012090B2003090B3000215130510F4969822C024
:140568002090B0003090B1002A143B0450F44F5F5F4F44311C
:14057C00E0E05E07A8F044E150E0969A11C08091B000909176
:14059000B1000597A816B90648F44130E0E05E0728F0415012
:1405A400504002C0969AAF9AA895662777270E940F033BCE53
:1405B80023960895DB9ADA9A0091C4001091C5000E94DA07B2
:1405CC00DC9A0895DB98DA9A0091C4001091C5000E94DA07E3
:1405E000DC9A0895DD980091C4001091C5000E94DA07DE98CB
:1405F4000895DD9A0091C4001091C5000E94DA07DE9808958E
:1406080000270E946507DA98DC98089501E00E946507DE9ABF
:14061C000895F4DFF9CF0E94490A590178012497CC84DD845E
:140630004427552700270E94650720906000222029F4F60134
:140644000E94940A002311F4CAD16FC0F5010E94940A002317
:1406580031F025E00BE710E00E94460864C0F7010E94940A3A
:14066C00DB82CA82B982A882222700270E947807F5010E9443
:14068000940AE02E002339F0BFDF25E00BE710E00E944608F9
:1406940047C005E010E00E94DA0735C0A8954F5F5F4F0AE07B
:1406A80010E00E94DA074039E1E05E0710F040E951E0F601DB
:1406BC000E94940AE02E002359F404E110E00E94DA07F6011D
:1406D0000E94940AE02E002309F418C0F5010E94940AE02E8C
:1406E400002389F00AE010E00E94DA07F5010E94940AE02EC5
:1406F800002339F085DF25E00BE710E00E9446080DC0CACF01
:14070C004039E1E05E0740F0DB82CA82B982A882222701E0D2
:140720000E94780771DF08E512E00E94DA0724960C94330A5B
:140734000E94490A590178012497CC84DD844427552701E0B5
:140748000E9465070AE010E00E94DA0720906000222029F4C3
:14075C00F6010E94940A002311F43DD160C0F5010E94940AC6
:14077000002331F025E000E810E00E94460855C0F7010E94B5
:14078400940ADB82CA82B982A88221E000270E947807F50176
:140798000E94940AE02E002391F138DF25E000E810E00E94C4
:1407AC00460838C0A8954F5F5F4F0AE010E00E94DA07403984
:1407C000E1E05E0710F040E951E0F6010E94940AE02E00233D
:1407D40059F40AE010E00E94DA07F6010E94940AE02E0023FF
:1407E80009F40EC0F5010E94940AE02E002339F00DDF25E0B1
:1407FC0000E810E00E9446080DC0D4CF4039E1E05E0740F0E2
:14081000DB82CA82B982A88221E001E00E947807F9DE08E5FF
:1408240012E00E94DA0724960C94330A0E94740A5901402FCB
:14083800259783E58C83CC24DD2400270E9465070AE010E079
:14084C000E94DA0720906000222011F0C4D046C0F5010E9490
:14086000940A002331F025E00BE710E00E9446083BC0443458
:1408740011F4ACDE01C0A0DE8EEB90E09B838A83B982A88229
:14088800222700270E947807F5010E94940A002339F0B6DEB5
:14089C0025E00BE710E00E9446081BC005E010E00E94DA073E
:1408B00015C08E010C5F1F4FD1D0C02E002309F40EC0F50184
:1408C4000E94940AC02E002339F09CDE25E00BE710E00E94A3
:1408D800460801C0EACF94DE08E512E00E94DA0725960C9415
:1408EC007B0A0E94740A5901402F259783E58C83CC24DD2466
:1409000001E00E94650720906000222029F4F5010E94940A4F
:14091400002311F064D042C0F5010E94940A002331F025E0F6
:1409280000E810E00E94460837C0463411F456DE01C05DDE4D
:14093C008EEB90E09B838A83B982A88221E000270E947807E5
:14095000F5010E94940AC02E0023E1F05BDE25E000E810E065
:140964000E94460816C08E010C5F1F4F75D0C02E002309F4FE
:140978000EC0F5010E94940AC02E002339F046DE25E000E81C
:14098C0010E00E94460801C0EACF3EDE08E512E00E94DA077F
:1409A00025960C947B0AAA92A02E80916000813029F4D998A9
:1409B40022242092600004C0D99A81E0809360000ED0AA2024
:1409C80031F001C0A8950E94BC060023D9F704E610E00E9429
:1409DC00DA07A9900895979A02E310E00E94DA0797980895FB
:1409F000DC98DE9AD098D8988AB38E6F8ABBDC98DE9AD99853
:140A0400DA98222424BA8FEF85BBA79A8F9A8E9A969A979899
:140A18008A988B988C988D98939A929A949A959AAF9A0895A0
:140A2C00AF9820906000222031F42224332430926200209285
:140A40006100A8950895AF9A08EC10E00C94DA07A8958FE10C
:140A540081BD8FE081BD08950E94520A580121972224288207
:140A6800A8958E010E94E608A8010030010711F401E01FC078
:140A7C008881843039F027E006E610E00E94460802E015C0F6
:140A9000FA0121803080320C2280320C2380321439F027E0CF
:140AA4000DE610E00E94460803E005C0FA012180F50120828F
:140AB800002721960C94570A0091C4001091C500012F112728
:140ACC000E943E080091C4001091C5000E943E080AEA0E94F5
:140AE0003E080091B6001091B700012F11270E943E0800913C
:140AF400B6001091B7000E943E080AEA0E943E080091B400D7
:140B08001091B500012F11270E943E080091B4001091B50098
:140B1C000E943E080AEA0E943E080091BA001091BB00012F2A
:140B300011270E943E080091BA001091BB000E943E080AEA0E
:140B44000E943E080091B8001091B900012F11270E943E08C2
:140B58000091B8001091B9000E943E080AEA0E943E08009191
:140B6C00C2001091C300012F11270E943E080091C20010910B
:140B8000C3000E943E080AEA0E943E080091BE001091BF002B
:140B9400012F11270E943E080091BE001091BF000E943E0866
:140BA8000AEA0E943E080091C0001091C100012F11270E94A0
:140BBC003E080091C0001091C1000E943E080AEA0E943E0868
:140BD0000091BC001091BD00012F11270E943E080091BC00C9
:140BE4001091BD000E943E080AEA0E943E080091AE001091FB
:140BF800AF00012F11270E943E080091AE001091AF000E94B9
:140C0C003E080AEA0E943E080091B0001091B100012F1127B7
:140C20000E943E080091B0001091B1000E943E080AEA0E94C7
:140C34003E080091B2001091B300012F11270E943E080091EE
:140C4800B2001091B3000C943E080E94660A662777278EEAF7
:140C5C0090E05C0144270CC0E42FFF27EA0DFB1D20811B017B
:140C70006F5F7F4F81010E9484064395463090F384EB90E076
:140C84005C0144270CC0E42FFF27EA0DFB1D20811B016F5FF5
:140C98007F4F81010E9484064395423190F30C946D0A0E9445
:140CAC00820A662777278EEA90E05C0144270CC01B016F5F17
:140CC0007F4F81010E949706E42FFF27EA0DFB1D00834395EE
:140CD400463090F384EB90E05C0144270DC06B016F5F7F4F97
:140CE80086010E949706C02EE42FFF27EA0DFB1DC0824395E2
:140CFC00423188F30C948B0A01E008950E944D0AA22E680111
:140D1000E199FECFDFBACEBAADBAE29AF894E19A789401E090
:140D240010E00E94DA070C94270AE199FECF1FBB0EBBE09A13
:140D38000DB30895989B02C0002701C001E00895999B02C0F9
:140D4C00002701C001E008959C9B02C0002701C001E00895CE
:140D60009D9B02C0002701C001E008959A9B02C0002701C040
:140D740001E008959B9B02C0002701C001E008959E9B02C094
:140D8800002701C001E00895829B02C0002701C001E00895AC
:140D9C00839B02C0002701C001E00895859B02C0002701C033
:140DB00001E00895849B02C0002701C001E0089583B38F7332
:140DC4008F3311F4002701C001E0089503E523B333272F7334
:140DD80030702F32E0E03E0709F18FE290E0821793072CF0D7
:140DEC002F31E0E03E07D1F01AC02733E0E03E0789F02B33BD
:140E0000E0E03E0791F02D33E0E03E0739F02E33E0E03E0764
:140E140009F009C002E407C006E405C000E503C005E501C059
:140E280004E40895222423BE82EB82BF89B7816089BF88B7B4
:140E3C00816088BF85E083BF789408952A923A928A939A9358
:140E5000AA93EA932FB62A9282EB82BF809161009091620090
:140E640001969093620080936100803EEEE29E0770F02090A7
:140E78006000222021F4D99A81E08093600022243324309209
:140E8C0062002092610029902FBEE991A99199918991399076
:140EA000299018950E94520A402F413029F4A090B400B090B9
:140EB400B50004C0A090B600B090B70085010E9400080C9404
:140EC800570A0E94520A402F413029F4A090B800B090B900D9
:140EDC0004C0A090BA00B090BB0085010E9400080C94570A28
:140EF0000E94470A622F402F219783E58883A895613069F4A5
:140F04006091B4007091B500A090B800B090B900C090BC0091
:140F1800D090BD000CC06091B6007091B700A090BA00B09053
:140F2C00BB00C090C000D090C100413009F421C0A5011BC0F5
:140F40008A010E94000886010E94DA07EB85FC850E94940A2D
:140F5400002361F48E010E942E05002339F0ED85FE850E94CA
:140F6800940AE02E002309F41CC04F5F5F4F4617570710F3B3
:140F7C0018C0AB0110C08A010E94000886010E94DA07EB855E
:140F9000FC850E94940A602F002309F006C0415050404A159B
:140FA4005B0568F302C00E940F0321960C943C0A0E945C0A63
:140FB80066277727442755270CC06627772702C06F5F7F4FBE
:140FCC006537E4E07E07D0F3A8954F5F5F4F4017510788F3A6
:140FE0000C94610A1801015010402220D9F73320C9F7089576
:140FF400BD9ABF9ABC9A81E58DB90895A895000F111F000F0F
:14100800111FC4981801232C33242FB8779BFECF0FB9779BE9
:14101C00FECFC49A08950E94660A580122242AB82BB886E814
:1410300080BD15014424552440E251EA67E070E05A924A92BC
:141044003A922A928A019B010E94B30941E050E060E070E0AA
:1410580018012901241A350A460A570A510129B8232C33243A
:14106C0020BC88E98AB980E88FBF899A0C946D0AA8955D9BBB
:14108000FECF0CB95E9BFECF5E9A08950E944B0AC22E78010F
:14109400AA2407C0EA2DFF27EE0DFF1D0081ECDFA394AC141C
:1410A800B8F30C942C0A2A923A928A939A93EA93FA932FB6F2
:1410BC002A925798209090003324822D8F5F8093900086EC2C
:1410D00090E0E22DFF27E80FF91F2CB02082A895579A2990F3
:1410E4002FBEF991E99199918991399029901895222420929C
:1410F800900008950091900008950E94660AAA244FEFA8959E
:14110C0066272FC0A89586EC90E0E62FFF27E80FF91F20804A
:1411200030909100231411F5AA24A39402C0A394A8952A2C9C
:141134003324E62FFF27E20DF31D86EC90E0E80FF91F208085
:1411480081E990E0EA2DFF27E80FF91F3080231419F48A2DC2
:14115C00853038F38A2D853018F0462F4B5F06C06395802F9F
:141170008450681708F4CCCF042F0C946D0A4A93442702C02D
:14118400A8954395242E3324E2E0F0E0E219F30986E990E031
:14119800E80FF91F2080342E4424E02FFF273197E319F409D4
:1411AC0086EC90E0E80FF91F3080321411F4433018F3433052
:1411C00010F001E001C00027499108950E94820A580194DFE1
:1411D400602F4FEFA8950C3018F40027112723C084E1861771
:1411E80008F419C0062FC7DF013009F014C0062F84DFC02EBF
:1411FC004C2D0F3F09F40DC077DF862F841B8350F5018083D8
:1412100086EC90E0042F1127080F191F06C06ADF2224F501E3
:141224002082002711270C948B0AD098D89880E487B980E89C
:1412380086B90895AA92BA92369A01C0A895349BFDCFA4B081
:14124C00BB2425B1332700E011E00E94170AA00EB11E05E089
:1412600010E00E94DA078501B990A99008950E94490A442702
:14127400CC24DD24AA24BB24DFDF78018091AD008A3078F4AD
:14128800282E8F5F8093AD0089E990E0E22DFF27EE0FFF1F1C
:14129C00E80FF91FF182E08231C044271FC0A89589E990E000
:1412B000E42FFF27EE0FFF1FE80FF91F20803180C20CD31CB9
:1412C400E42FFF273196EE0FFF1FE80FF91F20803180E42F88
:1412D800FF27EE0FFF1FE80FF91F3182208243954930F8F222
:1412EC00A7DF7801F092AC00E092AB00C00ED11E2AE030E0CD
:1413000086010E94930958010C94330A2017310718F4021B46
:14131400130B04C01901201A310A81010895689401C0E894FC
:14132800EA92FA928A93EE24FF2480E1000F111FEE1CFF1C92
:14133C00E216F30618F0E21AF30A03958A95A1F716F40E2D17
:141350001F2D8991F990E9900895E89401C0689430D0CC245B
:1413640009C0E89401C068942AD037FD0E949D0AB7FD52D026
:14137800772488249924AA24BB2442D0C1F045D0B1F0E8E26D
:14138C00000F111F221F331F771C881C991CAA1CBB1C881654
:1413A0009906AA06BB0628F0881A990AAA0ABB0A0395EA953C
:1413B40059F726F4082D192D2A2D3B2D13C07A928A929A925A
:1413C800AA92BA92CA92EA938A939A93AA93BA938B859C85AB
:1413DC00AD85BE85C32E0EF0CB260895C7FC0E949D0AB991B5
:1413F000A99199918991E991C990B990A990999089907990CB
:1414040024960895E02FE12BE22BE32B0895E82FE92BEA2B6A
:14141800EB2B089580959095A095B0958F5F9F4FAF4FBF4F71
:14142C0008950A921A928A939A93029FC001129F900D039F2B
:14144000900D8C0199918991199009900895A990B990C99070
:14145400D9900895A990B990C990D990E990F9900895A99062
:14146800B990C990D990E990F990499159910895A990B99080
:14147C00C990D990E990F990499159916991799108957A9326
:141490006A935A934A93FA92EA92DA92CA92BA92AA9208958C
:1414A4005A934A93BA92AA920895A990B99049915991089562
:1414B8007A936A935A934A930895499159916991799108954A
:1414CC007A936A935A934A93BA92AA920895A990B9904991B7
:1414E00059916991799108955A934A93DA92CA92BA92AA9253
:1414F4000895A990B990C990D9904991599108957A936A9398
:141508005A934A93DA92CA92BA92AA920895A990B990C9903D
:14151C00D990499159916991799108950A92C8950A92319691
:14153000C895F02DE9910990099400951095209530950F5F5B
:081544001F4F2F4F3F4F089588
:00000001FF
