:040000000C948700D5
:040024000C94F00444
:04002C000C94230607
:140054004E04DD07F5070D082508190831083D08E90701088C
:14006800A308A308A308A308A308A308A308A308D3078308C7
:14007C00C7076C08CD07A3086D08A308A308A3089D08A008EC
:140090009308A308D907A3084908A3087308C107A308A308F6
:1400A4004C085C08BE00A6047004C700A0046A04B4009A0489
:1400B8007C04AA009404760400000041434B4C454E5F455254
:1400CC005243484B5F45525249444C455F4F4B4C494D5F4117
:1400E0004C494D5F424348415247554C4C494E4B007374610D
:1400F4007274656E64000000000000000000000000000000DB
:14010800000000000000CFE5D4E0CDBFDEBFC051D0400AEA3D
:14011C0008830024EEEAF0E011E0E63CF10711F00192FBCF0F
:140130000083E0ECF0E0A0E6B0E011E000E00BBFEE30F107D5
:1401440021F0C89531960D92F9CF0E94E306FFCFDB9ADA9AC9
:140158000091C4001091C5000E94A605DC9A0895DB98DA9A91
:14016C000091C4001091C5000E94A605DC9A0895DD9800915E
:14018000C4001091C5000E94A605DE980895DD9A0091C40015
:140194001091C5000E94A605DE98089500270E943105DA9820
:1401A800DC98089501E00E943105DE9A0895F4DFF9CF0E9427
:1401BC000F0A590178012497CC84DD844427552700270E9427
:1401D000310520906000222029F4F6010E945A0A002311F451
:1401E400CAD16FC0F5010E945A0A002331F025E00BE710E016
:1401F8000E94120664C0F7010E945A0ADB82CA82B982A88209
:14020C00222700270E944405F5010E945A0AE02E002339F02D
:14022000BFDF25E00BE710E00E94120647C005E010E00E940D
:14023400A60535C0A8954F5F5F4F0AE010E00E94A6054039DD
:14024800E1E05E0710F040E951E0F6010E945A0AE02E0023F4
:14025C0059F404E110E00E94A605F6010E945A0AE02E0023F1
:1402700009F418C0F5010E945A0AE02E002389F00AE010E025
:140284000E94A605F5010E945A0AE02E002339F085DF25E05A
:140298000BE710E00E9412060DC0CACF4039E1E05E0740F081
:1402AC00DB82CA82B982A882222701E00E94440571DF08E5DE
:1402C00012E00E94A60524960C94F9090E940F0A5901780101
:1402D4002497CC84DD844427552701E00E9431050AE010E030
:1402E8000E94A60520906000222029F4F6010E945A0A002326
:1402FC0011F43DD160C0F5010E945A0A002331F025E000E88E
:1403100010E00E94120655C0F7010E945A0ADB82CA82B98238
:14032400A88221E000270E944405F5010E945A0AE02E00235B
:1403380091F138DF25E000E810E00E94120638C0A8954F5F9E
:14034C005F4F0AE010E00E94A6054039E1E05E0710F040E900
:1403600051E0F6010E945A0AE02E002359F40AE010E00E9461
:14037400A605F6010E945A0AE02E002309F40EC0F5010E9439
:140388005A0AE02E002339F00DDF25E000E810E00E94120620
:14039C000DC0D4CF4039E1E05E0740F0DB82CA82B982A88200
:1403B00021E001E00E944405F9DE08E512E00E94A6052496AF
:1403C4000C94F9090E943A0A5901402F259783E58C83CC24B1
:1403D800DD2400270E9431050AE010E00E94A60520906000DA
:1403EC00222011F0C4D046C0F5010E945A0A002331F025E0DB
:140400000BE710E00E9412063BC0443411F4ACDE01C0A0DE0B
:1404140084E590E09B838A83B982A882222700270E94440510
:14042800F5010E945A0A002339F0B6DE25E00BE710E00E945B
:14043C0012061BC005E010E00E94A60515C08E010C5F1F4F5A
:14045000D1D0C02E002309F40EC0F5010E945A0AC02E00230E
:1404640039F09CDE25E00BE710E00E94120601C0EACF94DE54
:1404780008E512E00E94A60525960C94410A0E943A0A59015E
:14048C00402F259783E58C83CC24DD2401E00E943105209060
:1404A0006000222029F4F5010E945A0A002311F064D042C033
:1404B400F5010E945A0A002331F025E000E810E00E9412065D
:1404C80037C0463411F456DE01C05DDE84E590E09B838A8376
:1404DC00B982A88221E000270E944405F5010E945A0AC02EAA
:1404F0000023E1F05BDE25E000E810E00E94120616C08E01CF
:140504000C5F1F4F75D0C02E002309F40EC0F5010E945A0AED
:14051800C02E002339F046DE25E000E810E00E94120601C019
:14052C00EACF3EDE08E512E00E94A60525960C94410AAA92D8
:14054000A02E80916000813029F4D99822242092600004C00D
:14055400D99A81E0809360000ED0AA2031F001C0A8950E94E3
:1405680088040023D9F704E610E00E94A605A9900895979AD2
:14057C0002E310E00E94A60597980895DC98DE9AD098D898B9
:140590008AB38E6F8ABBDC98DE9AD998DA98222424BA8FEF67
:1405A40085BBA79A8F9A8E9A969A97988A988B988C988D9884
:1405B800939A929A949A959AAF9A0895AF98209060002220FA
:1405CC0031F4222433243092620020926100A8950895AF9AFF
:1405E00008EC10E00C94A605A8958FE181BD8FE081BD0895A3
:1405F4000E94180A5801219722242882A8958E010E94B20608
:14060800A8010030010711F401E01FC08881843039F027E04B
:14061C0006E610E00E94120602E015C0FA0121803080320CF3
:140630002280320C2380321439F027E00DE610E00E94120620
:1406440003E005C0FA012180F5012082002721960C941D0A21
:140658000091C4001091C500012F11270E940A060091C40064
:14066C001091C5000E940A060AEA0E940A060091B6001091D4
:14068000B700012F11270E940A060091B6001091B7000E9454
:140694000A060AEA0E940A060091B4001091B500012F112799
:1406A8000E940A060091B4001091B5000E940A060AEA0E94A9
:1406BC000A060091BA001091BB00012F11270E940A060091C8
:1406D000BA001091BB000E940A060AEA0E940A060091B8005F
:1406E4001091B900012F11270E940A060091B8001091B900EB
:1406F8000E940A060AEA0E940A060091C2001091C300012FAF
:14070C0011270E940A060091C2001091C3000E940A060AEA92
:140720000E940A060091BE001091BF00012F11270E940A064A
:140734000091BE001091BF000E940A060AEA0E940A06009119
:14074800C0001091C100012F11270E940A060091C00010916F
:14075C00C1000E940A060AEA0E940A060091BC001091BD00C5
:14077000012F11270E940A060091BC001091BD000E940A06FE
:140784000AEA0E940A060091AE001091AF00012F11270E9422
:140798000A060091AE001091AF000E940A060AEA0E940A0656
:1407AC000091B0001091B100012F11270E940A060091B0004B
:1407C0001091B1000E940A060AEA0E940A060091B200109197
:1407D400B300012F11270E940A060091B2001091B3000C940D
:1407E8000A060E942C0A662777278EEA90E05C0144270CC06E
:1407FC00E42FFF27EA0DFB1D20811B016F5F7F4F81010E9424
:1408100050044395463090F384EB90E05C0144270CC0E42F29
:14082400FF27EA0DFB1D20811B016F5F7F4F81010E945004BA
:140838004395423190F30C94330A0E94480A662777278EEA6A
:14084C0090E05C0144270CC01B016F5F7F4F81010E94630451
:14086000E42FFF27EA0DFB1D00834395463090F384EB90E009
:140874005C0144270DC06B016F5F7F4F86010E946304C02E55
:14088800E42FFF27EA0DFB1DC0824395423188F30C94510A11
:14089C0001E008950E94130AA22E6801E199FECFDFBACEBA6A
:1408B000ADBAE29AF894E19A789401E010E00E94A6050C9480
:1408C400ED09E199FECF1FBB0EBBE09A0DB30895989B02C074
:1408D800002701C001E00895999B02C0002701C001E008954A
:1408EC009C9B02C0002701C001E008959D9B02C0002701C0B7
:1409000001E008959A9B02C0002701C001E008959B9B02C010
:14091400002701C001E008959E9B02C0002701C001E0089508
:14092800829B02C0002701C001E00895839B02C0002701C0AE
:14093C0001E00895859B02C0002701C001E00895849B02C000
:14095000002701C001E0089583B38F738F3311F4002701C046
:1409640001E0089503E523B333272F7330702F32E0E03E0741
:1409780009F18FE290E0821793072CF02F31E0E03E07D1F01B
:14098C001AC02733E0E03E0789F02B33E0E03E0791F02D3361
:1409A000E0E03E0739F02E33E0E03E0709F009C002E407C040
:1409B40006E405C000E503C005E501C004E40895222423BE81
:1409C80082EB82BF89B7816089BF88B7816088BF85E083BFF6
:1409DC00789408952A923A928A939A93AA93EA932FB62A9231
:1409F00082EB82BF8091610090916200019690936200809321
:140A04006100803EEEE29E0770F020906000222021F4D99A10
:140A180081E080936000222433243092620020926100299069
:140A2C002FBEE991A991999189913990299018950E94180ADE
:140A4000402F413029F4A090B400B090B50004C0A090B60022
:140A5400B090B70085010E94CC050C941D0A0E94180A402FA4
:140A6800413029F4A090B800B090B90004C0A090BA00B0901D
:140A7C00BB0085010E94CC050C941D0A0E940D0A622F402F32
:140A9000219783E58883A895613069F46091B4007091B500A1
:140AA400A090B800B090B900C090BC00D090BD000CC0609177
:140AB800B6007091B700A090BA00B090BB00C090C000D09067
:140ACC00C100413009F421C0A5011BC08A010E94CC05860100
:140AE0000E94A605EB85FC850E945A0A002361F48E010E9415
:140AF400FA02002339F0ED85FE850E945A0AE02E002309F47D
:140B08001CC04F5F5F4F4617570710F318C0AB0110C08A0104
:140B1C000E94CC0586010E94A605EB85FC850E945A0A602FF8
:140B3000002309F006C0415050404A155B0568F302C00E9430
:140B4400DB0021960C94020A0E94220A66277727442755277F
:140B58000CC06627772702C06F5F7F4F6537E4E07E07D0F38C
:140B6C00A8954F5F5F4F4017510788F30C94270A1801015077
:140B800010402220D9F73320C9F70895BD9ABF9ABC9A81E5E3
:140B94008DB90895A895000F111F000F111FC4981801232CEB
:140BA80033242FB8779BFECF0FB9779BFECFC49A08950E94D8
:140BBC002C0A580122242AB82BB886E880BD150144245524E9
:140BD00040E251EA67E070E05A924A923A922A928A019B01A6
:140BE4000E94790941E050E060E070E018012901241A350A38
:140BF800460A570A510129B8232C332420BC88E98AB980E867
:140C0C008FBF899A0C94330AA8955D9BFECF0CB95E9BFECFF9
:140C20005E9A08950E94110AC22E7801AA2407C0EA2DFF2733
:140C3400EE0DFF1D0081ECDFA394AC14B8F30C94F2092A9250
:140C48003A928A939A93EA93FA932FB62A92579820909000A8
:140C5C003324822D8F5F8093900086EC90E0E22DFF27E80FDF
:140C7000F91F2CB02082A895579A29902FBEF991E9919991D8
:140C84008991399029901895222420929000089500919000CD
:140C980008950E942C0AAA244FEFA89566272FC0A89586EC5F
:140CAC0090E0E62FFF27E80FF91F208030909100231411F54C
:140CC000AA24A39402C0A394A8952A2C3324E62FFF27E20D0E
:140CD400F31D86EC90E0E80FF91F208081E990E0EA2DFF2754
:140CE800E80FF91F3080231419F48A2D853038F38A2D8530F2
:140CFC0018F0462F4B5F06C06395802F8450681708F4CCCF66
:140D1000042F0C94330A4A93442702C0A8954395242E3324F7
:140D2400E2E0F0E0E219F30986E990E0E80FF91F2080342E42
:140D38004424E02FFF273197E319F40986EC90E0E80FF91F58
:140D4C003080321411F4433018F3433010F001E001C00027DE
:140D6000499108950E94480A580194DF602F4FEFA8950C3002
:140D740018F40027112723C084E1861708F419C0062FC7DF6B
:140D8800013009F014C0062F84DFC02E4C2D0F3F09F40DC042
:140D9C0077DF862F841B8350F501808386EC90E0042F112780
:140DB000080F191F06C06ADF2224F5012082002711270C94F4
:140DC400510A239783E58A83AA24BB244427552704EF11E019
:140DD8000E94A6050E94C40200E01BE40E94DD050E94C60582
:140DEC000E94E2040E94F4020E94EB088EEF93E09093B70074
:140E00008093B6008BEF91E09093B5008093B40084E690E0B1
:140E14009093BB008093BA0080E991E09093B9008093B8009E
:140E2800222433243092C3002092C2003092BF002092BE002F
:140E3C0081E090E09093C1008093C0009093BD008093BC006B
:140E50003092C5002092C4003092AF002092AE0088E593E0E0
:140E64009093B3008093B20082E89093B1008093B0000E943C
:140E7800BD02AAC10E94AC04002309F454C0A8950E94E202F3
:140E8C000E94B404602F77276035E0E07E0709F443C080E58C
:140EA00090E0861797076CF06234E0E07E0721F16434E0E0F2
:140EB4007E07A9F06634E0E07E0739F134C06535E0E07E0730
:140EC80009F02FC08EEB90E0998388832CEB30E00AEB10E012
:140EDC000E94DD0024C088EB90E09983888326EB30E004EB85
:140EF00010E00E94DD0019C082EB90E09983888320EB30E087
:140F04000EEA10E00E9466010EC08CEA90E0998388832AEAF9
:140F180030E008EA10E00E94660103C001E00E949F020E9441
:140F2C00EF028E010E5F1F4F0E94FA02C02E002309F007C1E6
:140F4000A8950E94E20223E003E610E00E9412066A817727BB
:140F54006133E0E07E070CF4F4C089E590E0861797070CF4E3
:140F6800EEC086E590E0FB01F197EE0FFF1FE80FF91F259089
:140F7C003490F10109942CEB30E005E50E94E401DEC026EBC7
:140F900030E004E40E94E401D8C02AEA30E006E40E94430241
:140FA400D2C020EB30E002E40E944302CCC000270E949F02C9
:140FB800C8C08091BC009091BD0001969093BD008093BC00AC
:140FCC000E942C03BCC08091BE009091BF0001969093BF009C
:140FE0008093BE000E942C03B0C08091C0009091C1000196A1
:140FF4009093C1008093C0000E942C03A4C08091C200909109
:14100800C30001969093C3008093C2000E942C0398C0809185
:14101C00B4009091B50005979093B5008093B4000E942C032A
:141030008CC08091B8009091B90005969093B9008093B8007B
:141044000E942C0380C08091B6009091B70005979093B70072
:141058008093B6000E942C0374C08091BA009091BB00059674
:14106C009093BB008093BA000E942C0368C08091C4009091D6
:14108000C50001969093C5008093C4000E942C035CC00E94B2
:141094002C0359C001E00E9431050E94BE008E010E5F1F4F7D
:1410A8000E94FA02C02E0023C1F70E94DB0049C000270E947E
:1410BC0031050E94AA008E010E5F1F4F0E94FA02C02E002385
:1410D000C1F70E94DB0039C0FFCF23E008E710E00E94120674
:1410E40032C00E940B096801D092AF00C092AE002090AE0078
:1410F8003090AF003092B1002092B00022C00E940B0968019F
:14110C00D092AF00C092AE002090AE003090AF003092B3007C
:141120002092B20012C00E940B096801D092AF00C092AE0055
:141134000E942C0308C00E94210405C00E94F50302C00E9484
:14114800DB000E94EF020E94A004C02E0023A9F10E948E0400
:14115C00C02E002311F0AF9801C0AF9ABA014F5F5F4F80E69F
:141170009AEEA0E0B0E08B019C0122273327BA93AA939A9350
:141184008A930E947B0988940023100720073007C1F40E9409
:141198000B09680156012090B2003090B3002016310610F02D
:1411AC0096980BC02090B0003090B100A214B30420F0969AB8
:1411C00002C0969AAF9AA895442755270E94DB0055CE239663
:1411D4000895D098D89880E487B980E886B90895AA92BA9222
:1411E800369A01C0A895349BFDCFA4B0BB2425B1332700E047
:1411FC0011E00E94DD09A00EB11E05E010E00E94A605850141
:14121000B990A99008950E943A0A4427AA24BB24E1DF680184
:141224008091AD008A3078F4282E8F5F8093AD0089E990E0EC
:14123800E22DFF27EE0FFF1FE80FF91FD182C08230C0442753
:14124C001FC0A89589E990E0E42FFF27EE0FFF1FE80FF91F2D
:1412600020803180A20CB31CE42FFF273196EE0FFF1FE80F9A
:14127400F91F20803180E42FFF27EE0FFF1FE80FF91F3182E7
:14128800208243954930F8F2A9DF6801D092AC00C092AB0079
:14129C00A00EB11E2AE030E085010E9459090C94410A689436
:1412B00001C0E894EA92FA928A93EE24FF2480E1000F111FF3
:1412C400EE1CFF1CE216F30618F0E21AF30A03958A95A1F7B0
:1412D80016F40E2D1F2D8991F990E9900895E89401C068947F
:1412EC0030D0CC2409C0E89401C068942AD037FD0E94630ABF
:14130000B7FD52D0772488249924AA24BB2442D0C1F045D07A
:14131400B1F0E8E2000F111F221F331F771C881C991CAA1CD6
:14132800BB1C88169906AA06BB0628F0881A990AAA0ABB0A56
:14133C000395EA9559F726F4082D192D2A2D3B2D13C07A9203
:141350008A929A92AA92BA92CA92EA938A939A93AA93BA930C
:141364008B859C85AD85BE85C32E0EF0CB260895C7FC0E94ED
:14137800630AB991A99199918991E991C990B990A9909990AE
:14138C008990799024960895E02FE12BE22BE32B0895E82FEA
:1413A000E92BEA2BEB2B089580959095A095B0958F5F9F4FCD
:1413B400AF4FBF4F08950A921A928A939A93029FC001129FD7
:1413C800900D039F900D8C0199918991199009900895A9904C
:1413DC00B990C990D9900895A990B990C990D990E990F9900F
:1413F0000895A990B990C990D990E990F990499159910895A5
:14140400A990B990C990D990E990F9904991599169917991C6
:1414180008957A936A935A934A93FA92EA92DA92CA92BA9233
:14142C00AA9208955A934A93BA92AA920895A990B990499188
:14144000599108957A936A935A934A930895499159916991E2
:14145400799108957A936A935A934A93BA92AA920895A990AB
:14146800B990499159916991799108955A934A93DA92CA9230
:14147C00BA92AA920895A990B990C990D99049915991089592
:141490007A936A935A934A93DA92CA92BA92AA920895A9904E
:1414A400B990C990D990499159916991799108950A92C895CB
:1414B8000A923196C895F02DE99109900994009510952095A4
:0C14CC0030950F5F1F4F2F4F3F4F0895CA
:00000001FF
