:040000000C948700D5
:040024000C943407FD
:04002C000C946708C1
:14005400BA01D201EA010202F6010E021A02C601DE018802C8
:140068008802880288028802880288028802B0016002A40106
:14007C004902AA0180024A028802840288027A027D027002A5
:140090008802B60188022602880250029E01880288022902AF
:1400A4003902FC02EA06AE060503E406A806F202DE06BA0633
:1400B800E802D806B4068C0600000041434B4C454E5F45527C
:1400CC005243484B5F45525249444C455F4F4B4C494D5F4117
:1400E0004C494D5F424348415247554C4C494E4B007374610D
:1400F4007274656E64000000000000000000000000000000DB
:14010800000000000000CFE5D4E0CDBFDEBFC051D0400AEA3D
:14011C0008830024EEEAF0E011E0E83CF10711F00192FBCF0D
:140130000083E0ECF0E0A0E6B0E011E000E00BBFEE30F107D5
:1401440021F0C89531960D92F9CF0E94AA00FFCF239783E5CF
:140158008A83AA24BB24662777274427552704EF11E00E9441
:14016C00EA070E94020500E01BE40E9421080E940A080E94E5
:1401800026070E9432050E9427098EEF93E09093B9008093B4
:14019400B8008BEF91E09093B7008093B60084E690E0909314
:1401A800BD008093BC0080E991E09093BB008093BA002224EC
:1401BC0033243092C5002092C4003092C1002092C00081E085
:1401D00090E09093C3008093C2009093BF008093BE0030927B
:1401E400C7002092C6002092B4003092AF002092AE0088E524
:1401F80093E09093B3008093B20082E89093B1008093B000E4
:14020C0008EB1BE00E94EA07CC2407C00E94470904E110E0DF
:140220000E94EA07C3948C2D8431B0F30E94FB04CCC10E94FF
:14023400F006002309F456C0A8950E9420050E94F806C02EF8
:14024800DD24C6018035E0E09E0709F444C080E58C159D0517
:14025C0074F0C6018234E0E09E0729F18434E0E09E07B1F070
:140270008634E0E09E0741F135C0C6018535E0E09E0709F055
:140284002FC08CEB90E0998388832AEB30E008EB10E00E94BF
:140298001B0324C086EB90E09983888324EB30E002EB10E04C
:1402AC000E941B0319C080EB90E0998388832EEA30E00CEA85
:1402C00010E00E94A4030EC08AEA90E09983888328EA30E0F6
:1402D40006EA10E00E94A40303C001E00E94DD040E942D05F2
:1402E8008E010E5F1F4F0E943805C02E002309F00FC1A895A2
:1402FC000E94200523E003E610E00E945608CA80DD24C60139
:140310008133E0E09E070CF4FBC089E58C159D050CF4F6C09E
:1403240084E590E0F601F197EE0FFF1FE80FF91F25903490CA
:14033800F10109942AEB30E005E50E942204E6C024EB30E086
:14034C0004E40E942204E0C028EA30E006E40E948104DAC080
:140360002EEA30E002E40E948104D4C000270E94DD04D0C086
:140374008091BE009091BF0001969093BF008093BE000E94DA
:140388006A05C4C08091C0009091C10001969093C10080932D
:14039C00C0000E946A05B8C08091C2009091C3000196909393
:1403B000C3008093C2000E946A05ACC08091C4009091C50069
:1403C40001969093C5008093C4000E946A05A0C08091B60097
:1403D8009091B70005979093B7008093B6000E946A0594C095
:1403EC008091BA009091BB0005969093BB008093BA000E946E
:140400006A0588C08091B8009091B90005979093B900809303
:14041400B8000E946A057CC08091BC009091BD000596909366
:14042800BD008093BC000E946A0570C08091C6009091C70034
:14043C0001969093C7008093C6000E946A0564C00E946A050C
:1404500061C001E00E9475070E94FC028E010E5F1F4F0E94CC
:140464003805C02E0023C1F70E94190351C000270E9475076A
:140478000E94E8028E010E5F1F4F0E943805C02E0023C1F7D2
:14048C000E94190341C0FFCF23E008E710E00E9456083AC0F3
:1404A0000E9447096801D092AF00C092AE002090AE003090BE
:1404B400AF003092B1002092B0002AC00E9447096801D09209
:1404C800AF00C092AE002090AE003090AF003092B30020927D
:1404DC00B2001AC00E9447096801D092AF00C092AE000E9472
:1404F0006A0510C00E945F060DC00E9433060AC081E08093CC
:14050400B40006C022242092B40002C00E9419030E942D0569
:140518000E94E406C02E002309F44CC00E94CC06C02E0023A4
:14052C0011F0AF9801C0AF9A6B016F5F7F4F80E69AEEA0E0F3
:14054000B0E08601970122273327BA93AA939A938A930E94DF
:14055400C5098894002310072007300779F50E944709680148
:1405680056012090B2003090B3000215130510F4969822C010
:14057C002090B0003090B1002A143B0450F44F5F5F4F443108
:14059000E0E05E07A8F044E150E0969A11C08091B000909162
:1405A400B1000297A816B90648F44130E0E05E0728F0415001
:1405B800504002C0969AAF9AA895662777270E94190333CE3D
:1405CC0023960895DB9ADA9A0091C6001091C7000E94EA078A
:1405E000DC9A0895DB98DA9A0091C6001091C7000E94EA07BB
:1405F400DC9A0895DD980091C6001091C7000E94EA07DE98A3
:140608000895DD9A0091C6001091C7000E94EA07DE98089565
:14061C0000270E947507DA98DC98089501E00E947507DE9A8B
:140630000895F4DFF9CF0E94590A590178012497CC84DD843A
:140644004427552700270E94750720906000222029F4F60110
:140658000E94A40A002311F4CAD16FC0F5010E94A40A0023E3
:14066C0031F025E00BE710E00E94560864C0F7010E94A40A06
:14068000DB82CA82B982A882222700270E948807F5010E941F
:14069400A40AE02E002339F0BFDF25E00BE710E00E945608C5
:1406A80047C005E010E00E94EA0735C0A8954F5F5F4F0AE057
:1406BC0010E00E94EA074039E1E05E0710F040E951E0F601B7
:1406D0000E94A40AE02E002359F404E110E00E94EA07F601E9
:1406E4000E94A40AE02E002309F418C0F5010E94A40AE02E58
:1406F800002389F00AE010E00E94EA07F5010E94A40AE02E91
:14070C00002339F085DF25E00BE710E00E9456080DC0CACFDC
:140720004039E1E05E0740F0DB82CA82B982A882222701E0BE
:140734000E94880771DF08E512E00E94EA0724960C94430A17
:140748000E94590A590178012497CC84DD844427552701E091
:14075C000E9475070AE010E00E94EA0720906000222029F48F
:14077000F6010E94A40A002311F43DD160C0F5010E94A40A92
:14078400002331F025E000E810E00E94560855C0F7010E9491
:14079800A40ADB82CA82B982A88221E000270E948807F50142
:1407AC000E94A40AE02E002391F138DF25E000E810E00E94A0
:1407C000560838C0A8954F5F5F4F0AE010E00E94EA07403950
:1407D400E1E05E0710F040E951E0F6010E94A40AE02E002319
:1407E80059F40AE010E00E94EA07F6010E94A40AE02E0023CB
:1407FC0009F40EC0F5010E94A40AE02E002339F00DDF25E08D
:1408100000E810E00E9456080DC0D4CF4039E1E05E0740F0BD
:14082400DB82CA82B982A88221E001E00E948807F9DE08E5DB
:1408380012E00E94EA0724960C94430A0E94840A5901402F87
:14084C00259783E58C83CC24DD2400270E9475070AE010E055
:140860000E94EA0720906000222011F0C4D046C0F5010E946C
:14087400A40A002331F025E00BE710E00E9456083BC0443424
:1408880011F4ACDE01C0A0DE8EEB90E09B838A83B982A88215
:14089C00222700270E948807F5010E94A40A002339F0B6DE81
:1408B00025E00BE710E00E9456081BC005E010E00E94EA070A
:1408C40015C08E010C5F1F4FD1D0C02E002309F40EC0F50170
:1408D8000E94A40AC02E002339F09CDE25E00BE710E00E947F
:1408EC00560801C0EACF94DE08E512E00E94EA0725960C94E1
:140900008B0A0E94840A5901402F259783E58C83CC24DD2431
:1409140001E00E94750720906000222029F4F5010E94A40A1B
:14092800002311F064D042C0F5010E94A40A002331F025E0D2
:14093C0000E810E00E94560837C0463411F456DE01C05DDE29
:140950008EEB90E09B838A83B982A88221E000270E948807C1
:14096400F5010E94A40AC02E0023E1F05BDE25E000E810E041
:140978000E94560816C08E010C5F1F4F75D0C02E002309F4DA
:14098C000EC0F5010E94A40AC02E002339F046DE25E000E8F8
:1409A00010E00E94560801C0EACF3EDE08E512E00E94EA074B
:1409B40025960C948B0AAA92A02E80916000813029F4D99885
:1409C80022242092600004C0D99A81E0809360000ED0AA2010
:1409DC0031F001C0A8950E94C6060023D9F704E610E00E940B
:1409F000EA07A9900895979A02E310E00E94EA0797980895C7
:140A0400DC98DE9AD098D8988AB38E6F8ABBDC98DE9AD9983E
:140A1800DA98222424BA8FEF85BBA79A8F9A8E9A969A979885
:140A2C008A988B988C988D98939A929A949A959AAF9A08958C
:140A4000AF9820906000222031F42224332430926200209271
:140A54006100A8950895AF9A08EC10E00C94EA07A8958FE1E8
:140A680081BD8FE081BD08950E94620A5801219722242882E3
:140A7C00A8958E010E94F608A8010030010711F401E01FC054
:140A90008881843039F027E006E610E00E94560802E015C0D2
:140AA400FA0121803080320C2280320C2380321439F027E0BB
:140AB8000DE610E00E94560803E005C0FA012180F50120826B
:140ACC00002721960C94670A0091C6001091C700012F112700
:140AE0000E944E080091C6001091C7000E944E080AEA0E94BD
:140AF4004E080091B8001091B900012F11270E944E08009104
:140B0800B8001091B9000E944E080AEA0E944E080091B6009C
:140B1C001091B700012F11270E944E080091B6001091B7006E
:140B30000E944E080AEA0E944E080091BC001091BD00012FF2
:140B440011270E944E080091BC001091BD000E944E080AEAD6
:140B58000E944E080091BA001091BB00012F11270E944E088A
:140B6C000091BA001091BB000E944E080AEA0E944E08009159
:140B8000C4001091C500012F11270E944E080091C4001091E1
:140B9400C5000E944E080AEA0E944E080091C0001091C100F1
:140BA800012F11270E944E080091C0001091C1000E944E082E
:140BBC000AEA0E944E080091C2001091C300012F11270E9478
:140BD0004E080091C2001091C3000E944E080AEA0E944E0820
:140BE4000091BE001091BF00012F11270E944E080091BE009F
:140BF8001091BF000E944E080AEA0E944E080091AE001091C5
:140C0C00AF00012F11270E944E080091AE001091AF000E9494
:140C20004E080AEA0E944E080091B0001091B100012F112783
:140C34000E944E080091B0001091B1000E944E080AEA0E9493
:140C48004E080091B2001091B300012F11270E944E080091BA
:140C5C00B2001091B3000C944E080E94760A662777278EEAC3
:140C700090E05C0144270CC0E42FFF27EA0DFB1D20811B0167
:140C84006F5F7F4F81010E948E064395463090F386EB90E056
:140C98005C0144270CC0E42FFF27EA0DFB1D20811B016F5FE1
:140CAC007F4F81010E948E064395423190F30C947D0A0E9417
:140CC000920A662777278EEA90E05C0144270CC01B016F5FF3
:140CD4007F4F81010E94A106E42FFF27EA0DFB1D00834395D0
:140CE800463090F386EB90E05C0144270DC06B016F5F7F4F81
:140CFC0086010E94A106C02EE42FFF27EA0DFB1DC0824395C4
:140D1000423188F30C949B0A01E008950E945D0AA22E6801DC
:140D2400E199FECFDFBACEBAADBAE29AF894E19A789401E07C
:140D380010E00E94EA070C94370AE199FECF1FBB0EBBE09ADF
:140D4C000DB30895989B02C0002701C001E00895999B02C0E5
:140D6000002701C001E008959C9B02C0002701C001E00895BA
:140D74009D9B02C0002701C001E008959A9B02C0002701C02C
:140D880001E008959B9B02C0002701C001E008952090B40017
:140D9C00222011F001E005C09E9B02C0002701C001E00895F9
:140DB000829B02C0002701C001E00895839B02C0002701C022
:140DC40001E00895859B02C0002701C001E00895849B02C074
:140DD800002701C001E0089583B38F738F3311F4002701C0BA
:140DEC0001E0089503E523B333272F7330702F32E0E03E07B5
:140E000009F18FE290E0821793072CF02F31E0E03E07D1F08E
:140E14001AC02733E0E03E0789F02B33E0E03E0791F02D33D4
:140E2800E0E03E0739F02E33E0E03E0709F009C002E407C0B3
:140E3C0006E405C000E503C005E501C004E40895222423BEF4
:140E500082EB82BF89B7816089BF88B7816088BF85E083BF69
:140E6400789408952A923A928A939A93AA93EA932FB62A92A4
:140E780082EB82BF8091610090916200019690936200809394
:140E8C006100803EEEE29E0770F020906000222021F4D99A84
:140EA00081E0809360002224332430926200209261002990DD
:140EB4002FBEE991A991999189913990299018950E94620A08
:140EC800402F413029F4A090B600B090B70004C0A090B80090
:140EDC00B090B90085010E9410080C94670A0E94620A402F3B
:140EF000413029F4A090BA00B090BB0004C0A090BC00B0908B
:140F0400BD0085010E9410080C94670A0E94570A622F402FC8
:140F1800219783E58883A895613069F46091B6007091B70010
:140F2C00A090BA00B090BB00C090BE00D090BF000CC06091E2
:140F4000B8007091B900A090BC00B090BD00C090C200D090D0
:140F5400C300413009F421C0A5011BC08A010E94100886012A
:140F68000E94EA07EB85FC850E94A40A002361F48E010E94F8
:140F7C003805002339F0ED85FE850E94A40AE02E002309F465
:140F90001CC04F5F5F4F4617570710F318C0AB0110C08A0178
:140FA4000E94100886010E94EA07EB85FC850E94A40A602F95
:140FB800002309F006C0415050404A155B0568F302C00E94A4
:140FCC00190321960C944C0A0E946C0A66277727442755271E
:140FE0000CC06627772702C06F5F7F4F6537E4E07E07D0F300
:140FF400A8954F5F5F4F4017510788F30C94710A18010150A1
:1410080010402220D9F73320C9F70895BD9ABF9ABC9A81E556
:14101C008DB90895A895000F111F000F111FC4981801232C5E
:1410300033242FB8779BFECF0FB9779BFECFC49A08950E944B
:14104400760A580122242AB82BB886E880BD15014424552412
:1410580040E251EA67E070E05A924A923A922A928A019B0119
:14106C000E94C30941E050E060E070E018012901241A350A61
:14108000460A570A510129B8232C332420BC88E98AB980E8DA
:141094008FBF899A0C947D0AA8955D9BFECF0CB95E9BFECF23
:1410A8005E9A08950E945B0AC22E7801AA2407C0EA2DFF275D
:1410BC00EE0DFF1D0081ECDFA394AC14B8F30C943C0A2A9279
:1410D0003A928A939A93EA93FA932FB62A925798209090001C
:1410E4003324822D8F5F8093900088EC90E0E22DFF27E80F51
:1410F800F91F2CB02082A895579A29902FBEF991E99199914C
:14110C00899139902990189522242092900008950091900040
:1411200008950E94760AAA244FEFA89566272FC0A89588EC86
:1411340090E0E62FFF27E80FF91F208030909100231411F5BF
:14114800AA24A39402C0A394A8952A2C3324E62FFF27E20D81
:14115C00F31D88EC90E0E80FF91F208081E990E0EA2DFF27C5
:14117000E80FF91F3080231419F48A2D853038F38A2D853065
:1411840018F0462F4B5F06C06395802F8450681708F4CCCFD9
:14119800042F0C947D0A4A93442702C0A8954395242E332421
:1411AC00E2E0F0E0E219F30986E990E0E80FF91F2080342EB6
:1411C0004424E02FFF273197E319F40988EC90E0E80FF91FCA
:1411D4003080321411F4433018F3433010F001E001C0002752
:1411E800499108950E94920A580194DF602F4FEFA8950C302C
:1411FC0018F40027112723C084E1861708F419C0062FC7DFDF
:14121000013009F014C0062F84DFC02E4C2D0F3F09F40DC0B5
:1412240077DF862F841B8350F501808388EC90E0042F1127F1
:14123800080F191F06C06ADF2224F5012082002711270C9467
:14124C009B0AD098D89880E487B980E886B90895AA92BA92A1
:14126000369A01C0A895349BFDCFA4B0BB2425B1332700E0CE
:1412740011E00E94270AA00EB11E05E010E00E94EA07850137
:14128800B990A99008950E94590A4427CC24DD24AA24BB2425
:14129C00DFDF78018091AD008A3078F4282E8F5F8093AD001F
:1412B00089E990E0E22DFF27EE0FFF1FE80FF91FF182E08214
:1412C40031C044271FC0A89589E990E0E42FFF27EE0FFF1F68
:1412D800E80FF91F20803180C20CD31CE42FFF273196EE0FE8
:1412EC00FF1FE80FF91F20803180E42FFF27EE0FFF1FE80F25
:14130000F91F3182208243954930F8F2A7DF7801F092AC0004
:14131400E092AB00C00ED11E2AE030E086010E94A3095801A3
:141328000C94430A2017310718F4021B130B04C01901201AF6
:14133C00310A81010895689401C0E894EA92FA928A93EE24D3
:14135000FF2480E1000F111FEE1CFF1CE216F30618F0E21AAC
:14136400F30A03958A95A1F716F40E2D1F2D8991F990E9907C
:141378000895E89401C0689430D0CC2409C0E89401C0689499
:14138C002AD037FD0E94AD0AB7FD52D0772488249924AA241E
:1413A000BB2442D0C1F045D0B1F0E8E2000F111F221F331F45
:1413B400771C881C991CAA1CBB1C88169906AA06BB0628F0D6
:1413C800881A990AAA0ABB0A0395EA9559F726F4082D192D57
:1413DC002A2D3B2D13C07A928A929A92AA92BA92CA92EA93B6
:1413F0008A939A93AA93BA938B859C85AD85BE85C32E0EF080
:14140400CB260895C7FC0E94AD0AB991A99199918991E991E8
:14141800C990B990A99099908990799024960895E02FE12B28
:14142C00E22BE32B0895E82FE92BEA2BEB2B089580959095C7
:14144000A095B0958F5F9F4FAF4FBF4F08950A921A928A9334
:141454009A93029FC001129F900D039F900D8C019991899197
:14146800199009900895A990B990C990D9900895A990B9902E
:14147C00C990D990E990F9900895A990B990C990D990E9903E
:14149000F990499159910895A990B990C990D990E990F99018
:1414A400499159916991799108957A936A935A934A93FA926F
:1414B800EA92DA92CA92BA92AA9208955A934A93BA92AA9265
:1414CC000895A990B9904991599108957A936A935A934A93B8
:1414E0000895499159916991799108957A936A935A934A9322
:1414F400BA92AA920895A990B99049915991699179910895D8
:141508005A934A93DA92CA92BA92AA920895A990B990C9903D
:14151C00D9904991599108957A936A935A934A93DA92CA9255
:14153000BA92AA920895A990B990C990D99049915991699180
:14154400799108950A92C8950A923196C895F02DE991099003
:14155800099400951095209530950F5F1F4F2F4F3F4F0895A9
:00000001FF
