:040000000C948700D5
:040024000C941E0713
:04002C000C945108D7
:14005400B801D001E8010002F4010C021802C401DC017E02E4
:140068007E027E027E027E027E027E027E02AE015E02A20152
:14007C004702A8017E0248027E027E027E0278027B026E02CD
:140090007E02B4017E0224027E024E029C017E027E022702EB
:1400A4003702EC02D4069E06F502CE069806E202C806AA06D8
:1400B800D802C206A4067C0600000041434B4C454E5F4552C2
:1400CC005243484B5F45525249444C455F4F4B4C494D5F4117
:1400E0004C494D5F424348415247554C4C494E4B007374610D
:1400F4007274656E64000000000000000000000000000000DB
:14010800000000000000CFE5D4E0CDBFDEBFC051D0400AEA3D
:14011C0008830024EEEAF0E011E0E63CF10711F00192FBCF0F
:140130000083E0ECF0E0A0E6B0E011E000E00BBFEE30F107D5
:1401440021F0C89531960D92F9CF0E94AA00FFCF239783E5CF
:140158008A83AA24BB24662777274427552704EF11E00E9441
:14016C00D4070E94F20400E01BE40E940B080E94F4070E9439
:1401800010070E9422050E9411098EEF93E09093B7008093F2
:14019400B6008BEF91E09093B5008093B40084E690E090931A
:1401A800BB008093BA0080E991E09093B9008093B8002224F4
:1401BC0033243092C3002092C2003092BF002092BE0081E08D
:1401D00090E09093C1008093C0009093BD008093BC00309283
:1401E400C5002092C4003092AF002092AE0088E593E09093F8
:1401F800B3008093B20082E89093B1008093B00008EB1BE08C
:14020C000E94D407CC2407C00E94310904E110E00E94D4077C
:14022000C3948C2D8431B0F30E94EB04BEC10E94DA060023AD
:1402340009F456C0A8950E9410050E94E206C02EDD24C6016F
:140248008035E0E09E0709F444C080E58C159D0574F0C601B4
:14025C008234E0E09E0729F18434E0E09E07B1F08634E0E021
:140270009E0741F135C0C6018535E0E09E0709F02FC08CEB69
:1402840090E0998388832AEB30E008EB10E00E940B0324C033
:1402980086EB90E09983888324EB30E002EB10E00E940B039E
:1402AC0019C080EB90E0998388832EEA30E00CEA10E00E94B3
:1402C00094030EC08AEA90E09983888328EA30E006EA10E0B8
:1402D4000E94940303C001E00E94CD040E941D058E010E5F06
:1402E8001F4F0E942805C02E002309F007C1A8950E941005FF
:1402FC0023E003E610E00E944008CA80DD24C6018133E0E0A2
:140310009E070CF4F3C089E58C159D050CF4EEC084E590E049
:14032400F601F197EE0FFF1FE80FF91F25903490F101099414
:140338002AEB30E005E50E941204DEC024EB30E004E40E94A3
:14034C001204D8C028EA30E006E40E947104D2C02EEA30E012
:1403600002E40E947104CCC000270E94CD04C8C08091BC0011
:140374009091BD0001969093BD008093BC000E945A05BCC0D4
:140388008091BE009091BF0001969093BF008093BE000E94C6
:14039C005A05B0C08091C0009091C10001969093C10080933D
:1403B000C0000E945A05A4C08091C2009091C30001969093A3
:1403C400C3008093C2000E945A0598C08091B4009091B50099
:1403D80005979093B5008093B4000E945A058CC08091B800C0
:1403EC009091B90005969093B9008093B8000E945A0580C0A0
:140400008091B6009091B70005979093B7008093B6000E9468
:140414005A0574C08091BA009091BB0005969093BB0080930E
:14042800BA000E945A0568C08091C4009091C5000196909368
:14043C00C5008093C4000E945A055CC00E945A0559C001E0F8
:140450000E945F070E94EC028E010E5F1F4F0E942805C02ED9
:140464000023C1F70E94090349C000270E945F070E94D80247
:140478008E010E5F1F4F0E942805C02E0023C1F70E940903C0
:14048C0039C0FFCF23E008E710E00E94400832C00E943109FB
:1404A0006801D092AF00C092AE002090AE003090AF0030923F
:1404B400B1002092B00022C00E9431096801D092AF00C09297
:1404C800AE002090AE003090AF003092B3002092B20012C0FA
:1404DC000E9431096801D092AF00C092AE000E945A0508C0ED
:1404F0000E944F0605C00E94230602C00E9409030E941D053D
:140504000E94CE06C02E002309F446C00E94BC06C02E0023E4
:1405180011F0AF9801C0AF9A6B016F5F7F4F80E69AEEA0E007
:14052C00B0E08601970122273327BA93AA939A938A930E94F3
:14054000AF098894002310072007300749F50E9431096801B8
:1405540056012090B2003090B3000215130510F496981CC02A
:140568002090B0003090B1002A143B0440F44F5F5F4F44312C
:14057C00E0E05E0778F0969A0DC08091B0009091B1000597B2
:14059000A816B90628F44427552702C0969AAF9AA8956627D2
:1405A40077270E94090341CE23960895DB9ADA9A0091C40054
:1405B8001091C5000E94D407DC9A0895DB98DA9A0091C400FD
:1405CC001091C5000E94D407DC9A0895DD980091C4001091BA
:1405E000C5000E94D407DE980895DD9A0091C4001091C50080
:1405F4000E94D407DE98089500270E945F07DA98DC980895B1
:1406080001E00E945F07DE9A0895F4DFF9CF0E94430A5901FC
:14061C0078012497CC84DD844427552700270E945F0720901F
:140630006000222029F4F6010E948E0A002311F4CAD16FC0D4
:14064400F5010E948E0A002331F025E00BE710E00E9440085D
:1406580064C0F7010E948E0ADB82CA82B982A88222270027BA
:14066C000E947207F5010E948E0AE02E002339F0BFDF25E032
:140680000BE710E00E94400847C005E010E00E94D40735C04C
:14069400A8954F5F5F4F0AE010E00E94D4074039E1E05E07C3
:1406A80010F040E951E0F6010E948E0AE02E002359F404E150
:1406BC0010E00E94D407F6010E948E0AE02E002309F418C086
:1406D000F5010E948E0AE02E002389F00AE010E00E94D407E5
:1406E400F5010E948E0AE02E002339F085DF25E00BE710E02D
:1406F8000E9440080DC0CACF4039E1E05E0740F0DB82CA8226
:14070C00B982A882222701E00E94720771DF08E512E00E945E
:14072000D40724960C942D0A0E94430A590178012497CC848C
:14073400DD844427552701E00E945F070AE010E00E94D40729
:1407480020906000222029F4F6010E948E0A002311F43DD1C7
:14075C0060C0F5010E948E0A002331F025E000E810E00E9476
:14077000400855C0F7010E948E0ADB82CA82B982A88221E0D7
:1407840000270E947207F5010E948E0AE02E002391F138DF25
:1407980025E000E810E00E94400838C0A8954F5F5F4F0AE00B
:1407AC0010E00E94D4074039E1E05E0710F040E951E0F601DC
:1407C0000E948E0AE02E002359F40AE010E00E94D407F6011F
:1407D4000E948E0AE02E002309F40EC0F5010E948E0AE02E9D
:1407E800002339F00DDF25E000E810E00E9440080DC0D4CF8E
:1407FC004039E1E05E0740F0DB82CA82B982A88221E001E02A
:140810000E947207F9DE08E512E00E94D40724960C942D0AF5
:140824000E946E0A5901402F259783E58C83CC24DD24002792
:140838000E945F070AE010E00E94D40720906000222011F0FA
:14084C00C4D046C0F5010E948E0A002331F025E00BE710E0A3
:140860000E9440083BC0443411F4ACDE01C0A0DE8EEB90E070
:140874009B838A83B982A882222700270E947207F5010E94BD
:140888008E0A002339F0B6DE25E00BE710E00E9440081BC038
:14089C0005E010E00E94D40715C08E010C5F1F4FD1D0C02E2A
:1408B000002309F40EC0F5010E948E0AC02E002339F09CDE62
:1408C40025E00BE710E00E94400801C0EACF94DE08E512E084
:1408D8000E94D40725960C94750A0E946E0A5901402F259716
:1408EC0083E58C83CC24DD2401E00E945F0720906000222055
:1409000029F4F5010E948E0A002311F064D042C0F5010E94A4
:140914008E0A002331F025E000E810E00E94400837C04634BB
:1409280011F456DE01C05DDE8EEB90E09B838A83B982A8820D
:14093C0021E000270E947207F5010E948E0AC02E0023E1F052
:140950005BDE25E000E810E00E94400816C08E010C5F1F4F55
:1409640075D0C02E002309F40EC0F5010E948E0AC02E00231D
:1409780039F046DE25E000E810E00E94400801C0EACF3EDEC1
:14098C0008E512E00E94D40725960C94750AAA92A02E809106
:1409A0006000813029F4D99822242092600004C0D99A81E0B4
:1409B400809360000ED0AA2031F001C0A8950E94B606002374
:1409C800D9F704E610E00E94D407A9900895979A02E310E018
:1409DC000E94D40797980895DC98DE9AD098D8988AB38E6FC0
:1409F0008ABBDC98DE9AD998DA98222424BA8FEF85BBA79ABC
:140A04008F9A8E9A969A97988A988B988C988D98939A929A47
:140A1800949A959AAF9A0895AF9820906000222031F4222483
:140A2C0033243092620020926100A8950895AF9A08EC10E021
:140A40000C94D407A8958FE181BD8FE081BD08950E944C0AFA
:140A54005801219722242882A8958E010E94E008A80100305E
:140A6800010711F401E01FC08881843039F027E006E610E0E4
:140A7C000E94400802E015C0FA0121803080320C2280320C5B
:140A90002380321439F027E00DE610E00E94400803E005C0C4
:140AA400FA012180F5012082002721960C94510A0091C400DC
:140AB8001091C500012F11270E9438080091C4001091C500BF
:140ACC000E9438080AEA0E9438080091B6001091B700012F8F
:140AE00011270E9438080091B6001091B7000E9438080AEA73
:140AF4000E9438080091B4001091B500012F11270E94380827
:140B08000091B4001091B5000E9438080AEA0E9438080091F5
:140B1C00BA001091BB00012F11270E9438080091BA00109179
:140B3000BB000E9438080AEA0E9438080091B8001091B9009B
:140B4400012F11270E9438080091B8001091B9000E943808CE
:140B58000AEA0E9438080091C2001091C300012F11270E94F2
:140B6C0038080091C2001091C3000E9438080AEA0E943808C6
:140B80000091BE001091BF00012F11270E9438080091BE0019
:140B94001091BF000E9438080AEA0E9438080091C000109143
:140BA800C100012F11270E9438080091C0001091C1000E94D9
:140BBC0038080AEA0E9438080091BC001091BD00012F1127FC
:140BD0000E9438080091BC001091BD000E9438080AEA0E940C
:140BE40038080091AE001091AF00012F11270E943808009153
:140BF800AE001091AF000E9438080AEA0E9438080091B000F2
:140C0C001091B100012F11270E9438080091B0001091B100A5
:140C20000E9438080AEA0E9438080091B2001091B300012F41
:140C340011270E9438080091B2001091B3000C9438080E9479
:140C4800600A662777278EEA90E05C0144270CC0E42FFF274E
:140C5C00EA0DFB1D20811B016F5F7F4F81010E947E0643959C
:140C7000463090F384EB90E05C0144270CC0E42FFF27EA0DD4
:140C8400FB1D20811B016F5F7F4F81010E947E0643954231F8
:140C980090F30C94670A0E947C0A662777278EEA90E05C011C
:140CAC0044270CC01B016F5F7F4F81010E949106E42FFF2751
:140CC000EA0DFB1D00834395463090F384EB90E05C01442716
:140CD4000DC06B016F5F7F4F86010E949106C02EE42FFF2750
:140CE800EA0DFB1DC0824395423188F30C94850A01E0089534
:140CFC000E94470AA22E6801E199FECFDFBACEBAADBAE29A6D
:140D1000F894E19A789401E010E00E94D4070C94210AE19929
:140D2400FECF1FBB0EBBE09A0DB30895989B02C0002701C097
:140D380001E00895999B02C0002701C001E008959C9B02C0D4
:140D4C00002701C001E008959D9B02C0002701C001E00895CD
:140D60009A9B02C0002701C001E008959B9B02C0002701C042
:140D740001E008959E9B02C0002701C001E00895829B02C0AD
:140D8800002701C001E00895839B02C0002701C001E00895AB
:140D9C00859B02C0002701C001E00895849B02C0002701C032
:140DB00001E0089583B38F738F3311F4002701C001E008954C
:140DC40003E523B333272F7330702F32E0E03E0709F18FE2F0
:140DD80090E0821793072CF02F31E0E03E07D1F01AC02733EE
:140DEC00E0E03E0789F02B33E0E03E0791F02D33E0E03E072C
:140E000039F02E33E0E03E0709F009C002E407C006E405C031
:140E140000E503C005E501C004E40895222423BE82EB82BF1D
:140E280089B7816089BF88B7816088BF85E083BF7894089596
:140E3C002A923A928A939A93AA93EA932FB62A9282EB82BFC7
:140E5000809161009091620001969093620080936100803E4B
:140E6400EEE29E0770F020906000222021F4D99A81E0809357
:140E7800600022243324309262002092610029902FBEE99112
:140E8C00A991999189913990299018950E944C0A402F4130CD
:140EA00029F4A090B400B090B50004C0A090B600B090B700A7
:140EB40085010E94FA070C94510A0E944C0A402F413029F411
:140EC800A090B800B090B90004C0A090BA00B090BB00850106
:140EDC000E94FA070C94510A0E94410A622F402F219783E557
:140EF0008883A895613069F46091B4007091B500A090B80075
:140F0400B090B900C090BC00D090BD000CC06091B600709143
:140F1800B700A090BA00B090BB00C090C000D090C100413087
:140F2C0009F421C0A5011BC08A010E94FA0786010E94D40720
:140F4000EB85FC850E948E0A002361F48E010E942805002379
:140F540039F0ED85FE850E948E0AE02E002309F41CC04F5F79
:140F68005F4F4617570710F318C0AB0110C08A010E94FA0787
:140F7C0086010E94D407EB85FC850E948E0A602F002309F087
:140F900006C0415050404A155B0568F302C00E940903219625
:140FA4000C94360A0E94560A66277727442755270CC06627EC
:140FB800772702C06F5F7F4F6537E4E07E07D0F3A8954F5F96
:140FCC005F4F4017510788F30C945B0A180101501040222038
:140FE000D9F73320C9F70895BD9ABF9ABC9A81E58DB908952E
:140FF400A895000F111F000F111FC4981801232C33242FB82C
:14100800779BFECF0FB9779BFECFC49A08950E94600A5801EE
:14101C0022242AB82BB886E880BD15014424552440E251EAB6
:1410300067E070E05A924A923A922A928A019B010E94AD0946
:1410440041E050E060E070E018012901241A350A460A570A46
:14105800510129B8232C332420BC88E98AB980E88FBF899A42
:14106C000C94670AA8955D9BFECF0CB95E9BFECF5E9A08953D
:141080000E94450AC22E7801AA2407C0EA2DFF27EE0DFF1D19
:141094000081ECDFA394AC14B8F30C94260A2A923A928A93E5
:1410A8009A93EA93FA932FB62A925798209090003324822D27
:1410BC008F5F8093900086EC90E0E22DFF27E80FF91F2CB08D
:1410D0002082A895579A29902FBEF991E99199918991399085
:1410E4002990189522242092900008950091900008950E940D
:1410F800600AAA244FEFA89566272FC0A89586EC90E0E62F81
:14110C00FF27E80FF91F208030909100231411F5AA24A39467
:1411200002C0A394A8952A2C3324E62FFF27E20DF31D86EC2C
:1411340090E0E80FF91F208081E990E0EA2DFF27E80FF91F62
:141148003080231419F48A2D853038F38A2D853018F0462F1F
:14115C004B5F06C06395802F8450681708F4CCCF042F0C94AB
:14117000670A4A93442702C0A8954395242E3324E2E0F0E0A0
:14118400E219F30986E990E0E80FF91F2080342E4424E02FF9
:14119800FF273197E319F40986EC90E0E80FF91F3080321475
:1411AC0011F4433018F3433010F001E001C0002749910895F9
:1411C0000E947C0A580194DF602F4FEFA8950C3018F40027AE
:1411D400112723C084E1861708F419C0062FC7DF013009F010
:1411E80014C0062F84DFC02E4C2D0F3F09F40DC077DF862FFD
:1411FC00841B8350F501808386EC90E0042F1127080F191FD8
:1412100006C06ADF2224F5012082002711270C94850AD098E7
:14122400D89880E487B980E886B90895AA92BA92369A01C045
:14123800A895349BFDCFA4B0BB2425B1332700E011E00E94F4
:14124C00110AA00EB11E05E010E00E94D4078501B990A9909C
:1412600008950E94430A4427CC24DD24AA24BB24DFDF7801AE
:141274008091AD008A3078F4282E8F5F8093AD0089E990E09C
:14128800E22DFF27EE0FFF1FE80FF91FF182E08231C04427C2
:14129C001FC0A89589E990E0E42FFF27EE0FFF1FE80FF91FDD
:1412B00020803180C20CD31CE42FFF273196EE0FFF1FE80F0A
:1412C400F91F20803180E42FFF27EE0FFF1FE80FF91F318297
:1412D800208243954930F8F2A7DF7801F092AC00E092AB00DB
:1412EC00C00ED11E2AE030E086010E948D0958010C942D0A28
:141300002017310718F4021B130B04C01901201A310A81014E
:141314000895689401C0E894EA92FA928A93EE24FF2480E134
:14132800000F111FEE1CFF1CE216F30618F0E21AF30A0395C3
:14133C008A95A1F716F40E2D1F2D8991F990E9900895E89420
:1413500001C0689430D0CC2409C0E89401C068942AD037FDAC
:141364000E94970AB7FD52D0772488249924AA24BB2442D099
:14137800C1F045D0B1F0E8E2000F111F221F331F771C881C27
:14138C00991CAA1CBB1C88169906AA06BB0628F0881A990AF0
:1413A000AA0ABB0A0395EA9559F726F4082D192D2A2D3B2D05
:1413B40013C07A928A929A92AA92BA92CA92EA938A939A9353
:1413C800AA93BA938B859C85AD85BE85C32E0EF0CB26089564
:1413DC00C7FC0E94970AB991A99199918991E991C990B99013
:1413F000A99099908990799024960895E02FE12BE22BE32BD8
:141404000895E82FE92BEA2BEB2B089580959095A095B09590
:141418008F5F9F4FAF4FBF4F08950A921A928A939A93029F08
:14142C00C001129F900D039F900D8C0199918991199009904B
:141440000895A990B990C990D9900895A990B990C990D990D6
:14145400E990F9900895A990B990C990D990E990F9904991C5
:1414680059910895A990B990C990D990E990F99049915991DF
:14147C006991799108957A936A935A934A93FA92EA92DA9273
:14149000CA92BA92AA9208955A934A93BA92AA920895A9909F
:1414A400B9904991599108957A936A935A934A93089549913F
:1414B80059916991799108957A936A935A934A93BA92AA9239
:1414CC000895A990B990499159916991799108955A934A93BE
:1414E000DA92CA92BA92AA920895A990B990C990D9904991ED
:1414F400599108957A936A935A934A93DA92CA92BA92AA9239
:141508000895A990B990C990D9904991599169917991089589
:14151C000A92C8950A923196C895F02DE991099009940095A0
:101530001095209530950F5F1F4F2F4F3F4F089507
:00000001FF
